{
	"IBWHACK/stakeContract.sol": {
		"NFTStaking": {
			"abi": [
				{
					"inputs": [
						{
							"internalType": "address",
							"name": "_rewardToken",
							"type": "address"
						},
						{
							"internalType": "uint256",
							"name": "_rewardPerSecond",
							"type": "uint256"
						},
						{
							"internalType": "uint256",
							"name": "_stakingDuration",
							"type": "uint256"
						}
					],
					"stateMutability": "nonpayable",
					"type": "constructor"
				},
				{
					"anonymous": false,
					"inputs": [
						{
							"indexed": true,
							"internalType": "address",
							"name": "previousOwner",
							"type": "address"
						},
						{
							"indexed": true,
							"internalType": "address",
							"name": "newOwner",
							"type": "address"
						}
					],
					"name": "OwnershipTransferred",
					"type": "event"
				},
				{
					"inputs": [
						{
							"internalType": "address",
							"name": "_user",
							"type": "address"
						}
					],
					"name": "calculateReward",
					"outputs": [
						{
							"internalType": "uint256",
							"name": "",
							"type": "uint256"
						}
					],
					"stateMutability": "view",
					"type": "function"
				},
				{
					"inputs": [],
					"name": "enroll",
					"outputs": [],
					"stateMutability": "nonpayable",
					"type": "function"
				},
				{
					"inputs": [
						{
							"internalType": "address",
							"name": "",
							"type": "address"
						}
					],
					"name": "isEnrolled",
					"outputs": [
						{
							"internalType": "bool",
							"name": "",
							"type": "bool"
						}
					],
					"stateMutability": "view",
					"type": "function"
				},
				{
					"inputs": [],
					"name": "owner",
					"outputs": [
						{
							"internalType": "address",
							"name": "",
							"type": "address"
						}
					],
					"stateMutability": "view",
					"type": "function"
				},
				{
					"inputs": [],
					"name": "renounceOwnership",
					"outputs": [],
					"stateMutability": "nonpayable",
					"type": "function"
				},
				{
					"inputs": [],
					"name": "rewardPerSecond",
					"outputs": [
						{
							"internalType": "uint256",
							"name": "",
							"type": "uint256"
						}
					],
					"stateMutability": "view",
					"type": "function"
				},
				{
					"inputs": [],
					"name": "rewardToken",
					"outputs": [
						{
							"internalType": "contract IERC20",
							"name": "",
							"type": "address"
						}
					],
					"stateMutability": "view",
					"type": "function"
				},
				{
					"inputs": [
						{
							"internalType": "uint256",
							"name": "_amount",
							"type": "uint256"
						}
					],
					"name": "stake",
					"outputs": [],
					"stateMutability": "nonpayable",
					"type": "function"
				},
				{
					"inputs": [
						{
							"internalType": "address",
							"name": "",
							"type": "address"
						}
					],
					"name": "stakes",
					"outputs": [
						{
							"internalType": "uint256",
							"name": "",
							"type": "uint256"
						}
					],
					"stateMutability": "view",
					"type": "function"
				},
				{
					"inputs": [],
					"name": "stakingDuration",
					"outputs": [
						{
							"internalType": "uint256",
							"name": "",
							"type": "uint256"
						}
					],
					"stateMutability": "view",
					"type": "function"
				},
				{
					"inputs": [
						{
							"internalType": "address",
							"name": "",
							"type": "address"
						}
					],
					"name": "startTimes",
					"outputs": [
						{
							"internalType": "uint256",
							"name": "",
							"type": "uint256"
						}
					],
					"stateMutability": "view",
					"type": "function"
				},
				{
					"inputs": [
						{
							"internalType": "address",
							"name": "newOwner",
							"type": "address"
						}
					],
					"name": "transferOwnership",
					"outputs": [],
					"stateMutability": "nonpayable",
					"type": "function"
				},
				{
					"inputs": [],
					"name": "unstake",
					"outputs": [],
					"stateMutability": "nonpayable",
					"type": "function"
				},
				{
					"inputs": [
						{
							"internalType": "uint256",
							"name": "_newRewardPerSecond",
							"type": "uint256"
						}
					],
					"name": "updateRewardPerSecond",
					"outputs": [],
					"stateMutability": "nonpayable",
					"type": "function"
				},
				{
					"inputs": [
						{
							"internalType": "uint256",
							"name": "_newStakingDuration",
							"type": "uint256"
						}
					],
					"name": "updateStakingDuration",
					"outputs": [],
					"stateMutability": "nonpayable",
					"type": "function"
				},
				{
					"inputs": [
						{
							"internalType": "uint256",
							"name": "_amount",
							"type": "uint256"
						}
					],
					"name": "withdrawRewardTokens",
					"outputs": [],
					"stateMutability": "nonpayable",
					"type": "function"
				}
			],
			"devdoc": {
				"kind": "dev",
				"methods": {
					"owner()": {
						"details": "Returns the address of the current owner."
					},
					"renounceOwnership()": {
						"details": "Leaves the contract without owner. It will not be possible to call `onlyOwner` functions. Can only be called by the current owner. NOTE: Renouncing ownership will leave the contract without an owner, thereby disabling any functionality that is only available to the owner."
					},
					"transferOwnership(address)": {
						"details": "Transfers ownership of the contract to a new account (`newOwner`). Can only be called by the current owner."
					}
				},
				"version": 1
			},
			"evm": {
				"assembly": "    /* \"IBWHACK/stakeContract.sol\":336:3745  contract NFTStaking is Ownable {... */\n  mstore(0x40, 0x80)\n    /* \"IBWHACK/stakeContract.sol\":941:1230  constructor(address _rewardToken, uint256 _rewardPerSecond, uint256 _stakingDuration) {... */\n  callvalue\n  dup1\n  iszero\n  tag_1\n  jumpi\n  0x00\n  dup1\n  revert\ntag_1:\n  pop\n  mload(0x40)\n  sub(codesize, bytecodeSize)\n  dup1\n  bytecodeSize\n  dup4\n  codecopy\n  dup2\n  dup2\n  add\n  0x40\n  mstore\n  dup2\n  add\n  swap1\n  tag_2\n  swap2\n  swap1\n  tag_3\n  jump\t// in\ntag_2:\n    /* \"@openzeppelin/contracts/access/Ownable.sol\":936:968  _transferOwnership(_msgSender()) */\n  tag_7\n    /* \"@openzeppelin/contracts/access/Ownable.sol\":955:967  _msgSender() */\n  tag_8\n    /* \"@openzeppelin/contracts/access/Ownable.sol\":955:965  _msgSender */\n  shl(0x20, tag_9)\n    /* \"@openzeppelin/contracts/access/Ownable.sol\":955:967  _msgSender() */\n  0x20\n  shr\n  jump\t// in\ntag_8:\n    /* \"@openzeppelin/contracts/access/Ownable.sol\":936:954  _transferOwnership */\n  shl(0x20, tag_10)\n    /* \"@openzeppelin/contracts/access/Ownable.sol\":936:968  _transferOwnership(_msgSender()) */\n  0x20\n  shr\n  jump\t// in\ntag_7:\n    /* \"IBWHACK/stakeContract.sol\":1122:1134  _rewardToken */\n  dup3\n    /* \"IBWHACK/stakeContract.sol\":1101:1112  rewardToken */\n  0x01\n  0x00\n    /* \"IBWHACK/stakeContract.sol\":1101:1135  rewardToken = IERC20(_rewardToken) */\n  0x0100\n  exp\n  dup2\n  sload\n  dup2\n  0xffffffffffffffffffffffffffffffffffffffff\n  mul\n  not\n  and\n  swap1\n  dup4\n  0xffffffffffffffffffffffffffffffffffffffff\n  and\n  mul\n  or\n  swap1\n  sstore\n  pop\n    /* \"IBWHACK/stakeContract.sol\":1163:1179  _rewardPerSecond */\n  dup2\n    /* \"IBWHACK/stakeContract.sol\":1145:1160  rewardPerSecond */\n  0x02\n    /* \"IBWHACK/stakeContract.sol\":1145:1179  rewardPerSecond = _rewardPerSecond */\n  dup2\n  swap1\n  sstore\n  pop\n    /* \"IBWHACK/stakeContract.sol\":1207:1223  _stakingDuration */\n  dup1\n    /* \"IBWHACK/stakeContract.sol\":1189:1204  stakingDuration */\n  0x03\n    /* \"IBWHACK/stakeContract.sol\":1189:1223  stakingDuration = _stakingDuration */\n  dup2\n  swap1\n  sstore\n  pop\n    /* \"IBWHACK/stakeContract.sol\":941:1230  constructor(address _rewardToken, uint256 _rewardPerSecond, uint256 _stakingDuration) {... */\n  pop\n  pop\n  pop\n    /* \"IBWHACK/stakeContract.sol\":336:3745  contract NFTStaking is Ownable {... */\n  jump(tag_12)\n    /* \"@openzeppelin/contracts/utils/Context.sol\":640:736  function _msgSender() internal view virtual returns (address) {... */\ntag_9:\n    /* \"@openzeppelin/contracts/utils/Context.sol\":693:700  address */\n  0x00\n    /* \"@openzeppelin/contracts/utils/Context.sol\":719:729  msg.sender */\n  caller\n    /* \"@openzeppelin/contracts/utils/Context.sol\":712:729  return msg.sender */\n  swap1\n  pop\n    /* \"@openzeppelin/contracts/utils/Context.sol\":640:736  function _msgSender() internal view virtual returns (address) {... */\n  swap1\n  jump\t// out\n    /* \"@openzeppelin/contracts/access/Ownable.sol\":2426:2613  function _transferOwnership(address newOwner) internal virtual {... */\ntag_10:\n    /* \"@openzeppelin/contracts/access/Ownable.sol\":2499:2515  address oldOwner */\n  0x00\n    /* \"@openzeppelin/contracts/access/Ownable.sol\":2518:2524  _owner */\n  dup1\n  0x00\n  swap1\n  sload\n  swap1\n  0x0100\n  exp\n  swap1\n  div\n  0xffffffffffffffffffffffffffffffffffffffff\n  and\n    /* \"@openzeppelin/contracts/access/Ownable.sol\":2499:2524  address oldOwner = _owner */\n  swap1\n  pop\n    /* \"@openzeppelin/contracts/access/Ownable.sol\":2543:2551  newOwner */\n  dup2\n    /* \"@openzeppelin/contracts/access/Ownable.sol\":2534:2540  _owner */\n  0x00\n  dup1\n    /* \"@openzeppelin/contracts/access/Ownable.sol\":2534:2551  _owner = newOwner */\n  0x0100\n  exp\n  dup2\n  sload\n  dup2\n  0xffffffffffffffffffffffffffffffffffffffff\n  mul\n  not\n  and\n  swap1\n  dup4\n  0xffffffffffffffffffffffffffffffffffffffff\n  and\n  mul\n  or\n  swap1\n  sstore\n  pop\n    /* \"@openzeppelin/contracts/access/Ownable.sol\":2597:2605  newOwner */\n  dup2\n    /* \"@openzeppelin/contracts/access/Ownable.sol\":2566:2606  OwnershipTransferred(oldOwner, newOwner) */\n  0xffffffffffffffffffffffffffffffffffffffff\n  and\n    /* \"@openzeppelin/contracts/access/Ownable.sol\":2587:2595  oldOwner */\n  dup2\n    /* \"@openzeppelin/contracts/access/Ownable.sol\":2566:2606  OwnershipTransferred(oldOwner, newOwner) */\n  0xffffffffffffffffffffffffffffffffffffffff\n  and\n  0x8be0079c531659141344cd1fd0a4f28419497f9722a3daafe3b4186f6b6457e0\n  mload(0x40)\n  mload(0x40)\n  dup1\n  swap2\n  sub\n  swap1\n  log3\n    /* \"@openzeppelin/contracts/access/Ownable.sol\":2489:2613  {... */\n  pop\n    /* \"@openzeppelin/contracts/access/Ownable.sol\":2426:2613  function _transferOwnership(address newOwner) internal virtual {... */\n  pop\n  jump\t// out\n    /* \"#utility.yul\":88:205   */\ntag_16:\n    /* \"#utility.yul\":197:198   */\n  0x00\n    /* \"#utility.yul\":194:195   */\n  dup1\n    /* \"#utility.yul\":187:199   */\n  revert\n    /* \"#utility.yul\":334:460   */\ntag_18:\n    /* \"#utility.yul\":371:378   */\n  0x00\n    /* \"#utility.yul\":411:453   */\n  0xffffffffffffffffffffffffffffffffffffffff\n    /* \"#utility.yul\":404:409   */\n  dup3\n    /* \"#utility.yul\":400:454   */\n  and\n    /* \"#utility.yul\":389:454   */\n  swap1\n  pop\n    /* \"#utility.yul\":334:460   */\n  swap2\n  swap1\n  pop\n  jump\t// out\n    /* \"#utility.yul\":466:562   */\ntag_19:\n    /* \"#utility.yul\":503:510   */\n  0x00\n    /* \"#utility.yul\":532:556   */\n  tag_31\n    /* \"#utility.yul\":550:555   */\n  dup3\n    /* \"#utility.yul\":532:556   */\n  tag_18\n  jump\t// in\ntag_31:\n    /* \"#utility.yul\":521:556   */\n  swap1\n  pop\n    /* \"#utility.yul\":466:562   */\n  swap2\n  swap1\n  pop\n  jump\t// out\n    /* \"#utility.yul\":568:690   */\ntag_20:\n    /* \"#utility.yul\":641:665   */\n  tag_33\n    /* \"#utility.yul\":659:664   */\n  dup2\n    /* \"#utility.yul\":641:665   */\n  tag_19\n  jump\t// in\ntag_33:\n    /* \"#utility.yul\":634:639   */\n  dup2\n    /* \"#utility.yul\":631:666   */\n  eq\n    /* \"#utility.yul\":621:684   */\n  tag_34\n  jumpi\n    /* \"#utility.yul\":680:681   */\n  0x00\n    /* \"#utility.yul\":677:678   */\n  dup1\n    /* \"#utility.yul\":670:682   */\n  revert\n    /* \"#utility.yul\":621:684   */\ntag_34:\n    /* \"#utility.yul\":568:690   */\n  pop\n  jump\t// out\n    /* \"#utility.yul\":696:839   */\ntag_21:\n    /* \"#utility.yul\":753:758   */\n  0x00\n    /* \"#utility.yul\":784:790   */\n  dup2\n    /* \"#utility.yul\":778:791   */\n  mload\n    /* \"#utility.yul\":769:791   */\n  swap1\n  pop\n    /* \"#utility.yul\":800:833   */\n  tag_36\n    /* \"#utility.yul\":827:832   */\n  dup2\n    /* \"#utility.yul\":800:833   */\n  tag_20\n  jump\t// in\ntag_36:\n    /* \"#utility.yul\":696:839   */\n  swap3\n  swap2\n  pop\n  pop\n  jump\t// out\n    /* \"#utility.yul\":845:922   */\ntag_22:\n    /* \"#utility.yul\":882:889   */\n  0x00\n    /* \"#utility.yul\":911:916   */\n  dup2\n    /* \"#utility.yul\":900:916   */\n  swap1\n  pop\n    /* \"#utility.yul\":845:922   */\n  swap2\n  swap1\n  pop\n  jump\t// out\n    /* \"#utility.yul\":928:1050   */\ntag_23:\n    /* \"#utility.yul\":1001:1025   */\n  tag_39\n    /* \"#utility.yul\":1019:1024   */\n  dup2\n    /* \"#utility.yul\":1001:1025   */\n  tag_22\n  jump\t// in\ntag_39:\n    /* \"#utility.yul\":994:999   */\n  dup2\n    /* \"#utility.yul\":991:1026   */\n  eq\n    /* \"#utility.yul\":981:1044   */\n  tag_40\n  jumpi\n    /* \"#utility.yul\":1040:1041   */\n  0x00\n    /* \"#utility.yul\":1037:1038   */\n  dup1\n    /* \"#utility.yul\":1030:1042   */\n  revert\n    /* \"#utility.yul\":981:1044   */\ntag_40:\n    /* \"#utility.yul\":928:1050   */\n  pop\n  jump\t// out\n    /* \"#utility.yul\":1056:1199   */\ntag_24:\n    /* \"#utility.yul\":1113:1118   */\n  0x00\n    /* \"#utility.yul\":1144:1150   */\n  dup2\n    /* \"#utility.yul\":1138:1151   */\n  mload\n    /* \"#utility.yul\":1129:1151   */\n  swap1\n  pop\n    /* \"#utility.yul\":1160:1193   */\n  tag_42\n    /* \"#utility.yul\":1187:1192   */\n  dup2\n    /* \"#utility.yul\":1160:1193   */\n  tag_23\n  jump\t// in\ntag_42:\n    /* \"#utility.yul\":1056:1199   */\n  swap3\n  swap2\n  pop\n  pop\n  jump\t// out\n    /* \"#utility.yul\":1205:1868   */\ntag_3:\n    /* \"#utility.yul\":1293:1299   */\n  0x00\n    /* \"#utility.yul\":1301:1307   */\n  dup1\n    /* \"#utility.yul\":1309:1315   */\n  0x00\n    /* \"#utility.yul\":1358:1360   */\n  0x60\n    /* \"#utility.yul\":1346:1355   */\n  dup5\n    /* \"#utility.yul\":1337:1344   */\n  dup7\n    /* \"#utility.yul\":1333:1356   */\n  sub\n    /* \"#utility.yul\":1329:1361   */\n  slt\n    /* \"#utility.yul\":1326:1445   */\n  iszero\n  tag_44\n  jumpi\n    /* \"#utility.yul\":1364:1443   */\n  tag_45\n  tag_16\n  jump\t// in\ntag_45:\n    /* \"#utility.yul\":1326:1445   */\ntag_44:\n    /* \"#utility.yul\":1484:1485   */\n  0x00\n    /* \"#utility.yul\":1509:1573   */\n  tag_46\n    /* \"#utility.yul\":1565:1572   */\n  dup7\n    /* \"#utility.yul\":1556:1562   */\n  dup3\n    /* \"#utility.yul\":1545:1554   */\n  dup8\n    /* \"#utility.yul\":1541:1563   */\n  add\n    /* \"#utility.yul\":1509:1573   */\n  tag_21\n  jump\t// in\ntag_46:\n    /* \"#utility.yul\":1499:1573   */\n  swap4\n  pop\n    /* \"#utility.yul\":1455:1583   */\n  pop\n    /* \"#utility.yul\":1622:1624   */\n  0x20\n    /* \"#utility.yul\":1648:1712   */\n  tag_47\n    /* \"#utility.yul\":1704:1711   */\n  dup7\n    /* \"#utility.yul\":1695:1701   */\n  dup3\n    /* \"#utility.yul\":1684:1693   */\n  dup8\n    /* \"#utility.yul\":1680:1702   */\n  add\n    /* \"#utility.yul\":1648:1712   */\n  tag_24\n  jump\t// in\ntag_47:\n    /* \"#utility.yul\":1638:1712   */\n  swap3\n  pop\n    /* \"#utility.yul\":1593:1722   */\n  pop\n    /* \"#utility.yul\":1761:1763   */\n  0x40\n    /* \"#utility.yul\":1787:1851   */\n  tag_48\n    /* \"#utility.yul\":1843:1850   */\n  dup7\n    /* \"#utility.yul\":1834:1840   */\n  dup3\n    /* \"#utility.yul\":1823:1832   */\n  dup8\n    /* \"#utility.yul\":1819:1841   */\n  add\n    /* \"#utility.yul\":1787:1851   */\n  tag_24\n  jump\t// in\ntag_48:\n    /* \"#utility.yul\":1777:1851   */\n  swap2\n  pop\n    /* \"#utility.yul\":1732:1861   */\n  pop\n    /* \"#utility.yul\":1205:1868   */\n  swap3\n  pop\n  swap3\n  pop\n  swap3\n  jump\t// out\n    /* \"IBWHACK/stakeContract.sol\":336:3745  contract NFTStaking is Ownable {... */\ntag_12:\n  dataSize(sub_0)\n  dup1\n  dataOffset(sub_0)\n  0x00\n  codecopy\n  0x00\n  return\nstop\n\nsub_0: assembly {\n        /* \"IBWHACK/stakeContract.sol\":336:3745  contract NFTStaking is Ownable {... */\n      mstore(0x40, 0x80)\n      callvalue\n      dup1\n      iszero\n      tag_1\n      jumpi\n      0x00\n      dup1\n      revert\n    tag_1:\n      pop\n      jumpi(tag_2, lt(calldatasize, 0x04))\n      shr(0xe0, calldataload(0x00))\n      dup1\n      0x94518fd8\n      gt\n      tag_19\n      jumpi\n      dup1\n      0xe65f2a7e\n      gt\n      tag_20\n      jumpi\n      dup1\n      0xe65f2a7e\n      eq\n      tag_15\n      jumpi\n      dup1\n      0xf2fde38b\n      eq\n      tag_16\n      jumpi\n      dup1\n      0xf53fd4ae\n      eq\n      tag_17\n      jumpi\n      dup1\n      0xf7c618c1\n      eq\n      tag_18\n      jumpi\n      jump(tag_2)\n    tag_20:\n      dup1\n      0x94518fd8\n      eq\n      tag_11\n      jumpi\n      dup1\n      0xa694fc3a\n      eq\n      tag_12\n      jumpi\n      dup1\n      0xcb43b2dd\n      eq\n      tag_13\n      jumpi\n      dup1\n      0xd82e3962\n      eq\n      tag_14\n      jumpi\n      jump(tag_2)\n    tag_19:\n      dup1\n      0x715018a6\n      gt\n      tag_21\n      jumpi\n      dup1\n      0x715018a6\n      eq\n      tag_7\n      jumpi\n      dup1\n      0x8005a7de\n      eq\n      tag_8\n      jumpi\n      dup1\n      0x8da5cb5b\n      eq\n      tag_9\n      jumpi\n      dup1\n      0x8f10369a\n      eq\n      tag_10\n      jumpi\n      jump(tag_2)\n    tag_21:\n      dup1\n      0x16934fc4\n      eq\n      tag_3\n      jumpi\n      dup1\n      0x2def6620\n      eq\n      tag_4\n      jumpi\n      dup1\n      0x4004c8e7\n      eq\n      tag_5\n      jumpi\n      dup1\n      0x5b1d7086\n      eq\n      tag_6\n      jumpi\n    tag_2:\n      0x00\n      dup1\n      revert\n        /* \"IBWHACK/stakeContract.sol\":623:664  mapping(address => uint256) public stakes */\n    tag_3:\n      tag_22\n      0x04\n      dup1\n      calldatasize\n      sub\n      dup2\n      add\n      swap1\n      tag_23\n      swap2\n      swap1\n      tag_24\n      jump\t// in\n    tag_23:\n      tag_25\n      jump\t// in\n    tag_22:\n      mload(0x40)\n      tag_26\n      swap2\n      swap1\n      tag_27\n      jump\t// in\n    tag_26:\n      mload(0x40)\n      dup1\n      swap2\n      sub\n      swap1\n      return\n        /* \"IBWHACK/stakeContract.sol\":2058:2675  function unstake() external {... */\n    tag_4:\n      tag_28\n      tag_29\n      jump\t// in\n    tag_28:\n      stop\n        /* \"IBWHACK/stakeContract.sol\":3182:3315  function updateRewardPerSecond(uint256 _newRewardPerSecond) external onlyOwner {... */\n    tag_5:\n      tag_30\n      0x04\n      dup1\n      calldatasize\n      sub\n      dup2\n      add\n      swap1\n      tag_31\n      swap2\n      swap1\n      tag_32\n      jump\t// in\n    tag_31:\n      tag_33\n      jump\t// in\n    tag_30:\n      stop\n        /* \"IBWHACK/stakeContract.sol\":3403:3536  function updateStakingDuration(uint256 _newStakingDuration) external onlyOwner {... */\n    tag_6:\n      tag_34\n      0x04\n      dup1\n      calldatasize\n      sub\n      dup2\n      add\n      swap1\n      tag_35\n      swap2\n      swap1\n      tag_32\n      jump\t// in\n    tag_35:\n      tag_36\n      jump\t// in\n    tag_34:\n      stop\n        /* \"@openzeppelin/contracts/access/Ownable.sol\":1824:1925  function renounceOwnership() public virtual onlyOwner {... */\n    tag_7:\n      tag_37\n      tag_38\n      jump\t// in\n    tag_37:\n      stop\n        /* \"IBWHACK/stakeContract.sol\":543:573  uint256 public stakingDuration */\n    tag_8:\n      tag_39\n      tag_40\n      jump\t// in\n    tag_39:\n      mload(0x40)\n      tag_41\n      swap2\n      swap1\n      tag_27\n      jump\t// in\n    tag_41:\n      mload(0x40)\n      dup1\n      swap2\n      sub\n      swap1\n      return\n        /* \"@openzeppelin/contracts/access/Ownable.sol\":1201:1286  function owner() public view virtual returns (address) {... */\n    tag_9:\n      tag_42\n      tag_43\n      jump\t// in\n    tag_42:\n      mload(0x40)\n      tag_44\n      swap2\n      swap1\n      tag_45\n      jump\t// in\n    tag_44:\n      mload(0x40)\n      dup1\n      swap2\n      sub\n      swap1\n      return\n        /* \"IBWHACK/stakeContract.sol\":465:495  uint256 public rewardPerSecond */\n    tag_10:\n      tag_46\n      tag_47\n      jump\t// in\n    tag_46:\n      mload(0x40)\n      tag_48\n      swap2\n      swap1\n      tag_27\n      jump\t// in\n    tag_48:\n      mload(0x40)\n      dup1\n      swap2\n      sub\n      swap1\n      return\n        /* \"IBWHACK/stakeContract.sol\":802:844  mapping(address => bool) public isEnrolled */\n    tag_11:\n      tag_49\n      0x04\n      dup1\n      calldatasize\n      sub\n      dup2\n      add\n      swap1\n      tag_50\n      swap2\n      swap1\n      tag_24\n      jump\t// in\n    tag_50:\n      tag_51\n      jump\t// in\n    tag_49:\n      mload(0x40)\n      tag_52\n      swap2\n      swap1\n      tag_53\n      jump\t// in\n    tag_52:\n      mload(0x40)\n      dup1\n      swap2\n      sub\n      swap1\n      return\n        /* \"IBWHACK/stakeContract.sol\":1469:2012  function stake(uint256 _amount) external {... */\n    tag_12:\n      tag_54\n      0x04\n      dup1\n      calldatasize\n      sub\n      dup2\n      add\n      swap1\n      tag_55\n      swap2\n      swap1\n      tag_32\n      jump\t// in\n    tag_55:\n      tag_56\n      jump\t// in\n    tag_54:\n      stop\n        /* \"IBWHACK/stakeContract.sol\":3622:3743  function withdrawRewardTokens(uint256 _amount) external onlyOwner {... */\n    tag_13:\n      tag_57\n      0x04\n      dup1\n      calldatasize\n      sub\n      dup2\n      add\n      swap1\n      tag_58\n      swap2\n      swap1\n      tag_32\n      jump\t// in\n    tag_58:\n      tag_59\n      jump\t// in\n    tag_57:\n      stop\n        /* \"IBWHACK/stakeContract.sol\":2732:3093  function calculateReward(address _user) public view returns (uint256) {... */\n    tag_14:\n      tag_60\n      0x04\n      dup1\n      calldatasize\n      sub\n      dup2\n      add\n      swap1\n      tag_61\n      swap2\n      swap1\n      tag_24\n      jump\t// in\n    tag_61:\n      tag_62\n      jump\t// in\n    tag_60:\n      mload(0x40)\n      tag_63\n      swap2\n      swap1\n      tag_27\n      jump\t// in\n    tag_63:\n      mload(0x40)\n      dup1\n      swap2\n      sub\n      swap1\n      return\n        /* \"IBWHACK/stakeContract.sol\":1296:1431  function enroll() external {... */\n    tag_15:\n      tag_64\n      tag_65\n      jump\t// in\n    tag_64:\n      stop\n        /* \"@openzeppelin/contracts/access/Ownable.sol\":2074:2272  function transferOwnership(address newOwner) public virtual onlyOwner {... */\n    tag_16:\n      tag_66\n      0x04\n      dup1\n      calldatasize\n      sub\n      dup2\n      add\n      swap1\n      tag_67\n      swap2\n      swap1\n      tag_24\n      jump\t// in\n    tag_67:\n      tag_68\n      jump\t// in\n    tag_66:\n      stop\n        /* \"IBWHACK/stakeContract.sol\":709:754  mapping(address => uint256) public startTimes */\n    tag_17:\n      tag_69\n      0x04\n      dup1\n      calldatasize\n      sub\n      dup2\n      add\n      swap1\n      tag_70\n      swap2\n      swap1\n      tag_24\n      jump\t// in\n    tag_70:\n      tag_71\n      jump\t// in\n    tag_69:\n      mload(0x40)\n      tag_72\n      swap2\n      swap1\n      tag_27\n      jump\t// in\n    tag_72:\n      mload(0x40)\n      dup1\n      swap2\n      sub\n      swap1\n      return\n        /* \"IBWHACK/stakeContract.sol\":395:420  IERC20 public rewardToken */\n    tag_18:\n      tag_73\n      tag_74\n      jump\t// in\n    tag_73:\n      mload(0x40)\n      tag_75\n      swap2\n      swap1\n      tag_76\n      jump\t// in\n    tag_75:\n      mload(0x40)\n      dup1\n      swap2\n      sub\n      swap1\n      return\n        /* \"IBWHACK/stakeContract.sol\":623:664  mapping(address => uint256) public stakes */\n    tag_25:\n      mstore(0x20, 0x04)\n      dup1\n      0x00\n      mstore\n      keccak256(0x00, 0x40)\n      0x00\n      swap2\n      pop\n      swap1\n      pop\n      sload\n      dup2\n      jump\t// out\n        /* \"IBWHACK/stakeContract.sol\":2058:2675  function unstake() external {... */\n    tag_29:\n        /* \"IBWHACK/stakeContract.sol\":2104:2114  isEnrolled */\n      0x06\n        /* \"IBWHACK/stakeContract.sol\":2104:2126  isEnrolled[msg.sender] */\n      0x00\n        /* \"IBWHACK/stakeContract.sol\":2115:2125  msg.sender */\n      caller\n        /* \"IBWHACK/stakeContract.sol\":2104:2126  isEnrolled[msg.sender] */\n      0xffffffffffffffffffffffffffffffffffffffff\n      and\n      0xffffffffffffffffffffffffffffffffffffffff\n      and\n      dup2\n      mstore\n      0x20\n      add\n      swap1\n      dup2\n      mstore\n      0x20\n      add\n      0x00\n      keccak256\n      0x00\n      swap1\n      sload\n      swap1\n      0x0100\n      exp\n      swap1\n      div\n      0xff\n      and\n        /* \"IBWHACK/stakeContract.sol\":2096:2143  require(isEnrolled[msg.sender], \"Not enrolled\") */\n      tag_78\n      jumpi\n      mload(0x40)\n      0x08c379a000000000000000000000000000000000000000000000000000000000\n      dup2\n      mstore\n      0x04\n      add\n      tag_79\n      swap1\n      tag_80\n      jump\t// in\n    tag_79:\n      mload(0x40)\n      dup1\n      swap2\n      sub\n      swap1\n      revert\n    tag_78:\n        /* \"IBWHACK/stakeContract.sol\":2182:2183  0 */\n      0x00\n        /* \"IBWHACK/stakeContract.sol\":2161:2167  stakes */\n      0x04\n        /* \"IBWHACK/stakeContract.sol\":2161:2179  stakes[msg.sender] */\n      0x00\n        /* \"IBWHACK/stakeContract.sol\":2168:2178  msg.sender */\n      caller\n        /* \"IBWHACK/stakeContract.sol\":2161:2179  stakes[msg.sender] */\n      0xffffffffffffffffffffffffffffffffffffffff\n      and\n      0xffffffffffffffffffffffffffffffffffffffff\n      and\n      dup2\n      mstore\n      0x20\n      add\n      swap1\n      dup2\n      mstore\n      0x20\n      add\n      0x00\n      keccak256\n      sload\n        /* \"IBWHACK/stakeContract.sol\":2161:2183  stakes[msg.sender] > 0 */\n      gt\n        /* \"IBWHACK/stakeContract.sol\":2153:2204  require(stakes[msg.sender] > 0, \"No staked amount\") */\n      tag_81\n      jumpi\n      mload(0x40)\n      0x08c379a000000000000000000000000000000000000000000000000000000000\n      dup2\n      mstore\n      0x04\n      add\n      tag_82\n      swap1\n      tag_83\n      jump\t// in\n    tag_82:\n      mload(0x40)\n      dup1\n      swap2\n      sub\n      swap1\n      revert\n    tag_81:\n        /* \"IBWHACK/stakeContract.sol\":2266:2281  stakingDuration */\n      sload(0x03)\n        /* \"IBWHACK/stakeContract.sol\":2241:2251  startTimes */\n      0x05\n        /* \"IBWHACK/stakeContract.sol\":2241:2263  startTimes[msg.sender] */\n      0x00\n        /* \"IBWHACK/stakeContract.sol\":2252:2262  msg.sender */\n      caller\n        /* \"IBWHACK/stakeContract.sol\":2241:2263  startTimes[msg.sender] */\n      0xffffffffffffffffffffffffffffffffffffffff\n      and\n      0xffffffffffffffffffffffffffffffffffffffff\n      and\n      dup2\n      mstore\n      0x20\n      add\n      swap1\n      dup2\n      mstore\n      0x20\n      add\n      0x00\n      keccak256\n      sload\n        /* \"IBWHACK/stakeContract.sol\":2241:2281  startTimes[msg.sender] + stakingDuration */\n      tag_84\n      swap2\n      swap1\n      tag_85\n      jump\t// in\n    tag_84:\n        /* \"IBWHACK/stakeContract.sol\":2222:2237  block.timestamp */\n      timestamp\n        /* \"IBWHACK/stakeContract.sol\":2222:2281  block.timestamp >= startTimes[msg.sender] + stakingDuration */\n      lt\n      iszero\n        /* \"IBWHACK/stakeContract.sol\":2214:2313  require(block.timestamp >= startTimes[msg.sender] + stakingDuration, \"Staking duration not passed\") */\n      tag_86\n      jumpi\n      mload(0x40)\n      0x08c379a000000000000000000000000000000000000000000000000000000000\n      dup2\n      mstore\n      0x04\n      add\n      tag_87\n      swap1\n      tag_88\n      jump\t// in\n    tag_87:\n      mload(0x40)\n      dup1\n      swap2\n      sub\n      swap1\n      revert\n    tag_86:\n        /* \"IBWHACK/stakeContract.sol\":2408:2422  uint256 reward */\n      0x00\n        /* \"IBWHACK/stakeContract.sol\":2425:2452  calculateReward(msg.sender) */\n      tag_89\n        /* \"IBWHACK/stakeContract.sol\":2441:2451  msg.sender */\n      caller\n        /* \"IBWHACK/stakeContract.sol\":2425:2440  calculateReward */\n      tag_62\n        /* \"IBWHACK/stakeContract.sol\":2425:2452  calculateReward(msg.sender) */\n      jump\t// in\n    tag_89:\n        /* \"IBWHACK/stakeContract.sol\":2408:2452  uint256 reward = calculateReward(msg.sender) */\n      swap1\n      pop\n        /* \"IBWHACK/stakeContract.sol\":2462:2473  rewardToken */\n      0x01\n      0x00\n      swap1\n      sload\n      swap1\n      0x0100\n      exp\n      swap1\n      div\n      0xffffffffffffffffffffffffffffffffffffffff\n      and\n        /* \"IBWHACK/stakeContract.sol\":2462:2482  rewardToken.transfer */\n      0xffffffffffffffffffffffffffffffffffffffff\n      and\n      0xa9059cbb\n        /* \"IBWHACK/stakeContract.sol\":2483:2493  msg.sender */\n      caller\n        /* \"IBWHACK/stakeContract.sol\":2516:2522  reward */\n      dup4\n        /* \"IBWHACK/stakeContract.sol\":2495:2501  stakes */\n      0x04\n        /* \"IBWHACK/stakeContract.sol\":2495:2513  stakes[msg.sender] */\n      0x00\n        /* \"IBWHACK/stakeContract.sol\":2502:2512  msg.sender */\n      caller\n        /* \"IBWHACK/stakeContract.sol\":2495:2513  stakes[msg.sender] */\n      0xffffffffffffffffffffffffffffffffffffffff\n      and\n      0xffffffffffffffffffffffffffffffffffffffff\n      and\n      dup2\n      mstore\n      0x20\n      add\n      swap1\n      dup2\n      mstore\n      0x20\n      add\n      0x00\n      keccak256\n      sload\n        /* \"IBWHACK/stakeContract.sol\":2495:2522  stakes[msg.sender] + reward */\n      tag_90\n      swap2\n      swap1\n      tag_85\n      jump\t// in\n    tag_90:\n        /* \"IBWHACK/stakeContract.sol\":2462:2523  rewardToken.transfer(msg.sender, stakes[msg.sender] + reward) */\n      mload(0x40)\n      dup4\n      0xffffffff\n      and\n      0xe0\n      shl\n      dup2\n      mstore\n      0x04\n      add\n      tag_91\n      swap3\n      swap2\n      swap1\n      tag_92\n      jump\t// in\n    tag_91:\n      0x20\n      mload(0x40)\n      dup1\n      dup4\n      sub\n      dup2\n      0x00\n      dup8\n      gas\n      call\n      iszero\n      dup1\n      iszero\n      tag_94\n      jumpi\n      returndatasize\n      0x00\n      dup1\n      returndatacopy\n      revert(0x00, returndatasize)\n    tag_94:\n      pop\n      pop\n      pop\n      pop\n      mload(0x40)\n      returndatasize\n      not(0x1f)\n      0x1f\n      dup3\n      add\n      and\n      dup3\n      add\n      dup1\n      0x40\n      mstore\n      pop\n      dup2\n      add\n      swap1\n      tag_95\n      swap2\n      swap1\n      tag_96\n      jump\t// in\n    tag_95:\n      pop\n        /* \"IBWHACK/stakeContract.sol\":2631:2632  0 */\n      0x00\n        /* \"IBWHACK/stakeContract.sol\":2610:2616  stakes */\n      0x04\n        /* \"IBWHACK/stakeContract.sol\":2610:2628  stakes[msg.sender] */\n      0x00\n        /* \"IBWHACK/stakeContract.sol\":2617:2627  msg.sender */\n      caller\n        /* \"IBWHACK/stakeContract.sol\":2610:2628  stakes[msg.sender] */\n      0xffffffffffffffffffffffffffffffffffffffff\n      and\n      0xffffffffffffffffffffffffffffffffffffffff\n      and\n      dup2\n      mstore\n      0x20\n      add\n      swap1\n      dup2\n      mstore\n      0x20\n      add\n      0x00\n      keccak256\n        /* \"IBWHACK/stakeContract.sol\":2610:2632  stakes[msg.sender] = 0 */\n      dup2\n      swap1\n      sstore\n      pop\n        /* \"IBWHACK/stakeContract.sol\":2667:2668  0 */\n      0x00\n        /* \"IBWHACK/stakeContract.sol\":2642:2652  startTimes */\n      0x05\n        /* \"IBWHACK/stakeContract.sol\":2642:2664  startTimes[msg.sender] */\n      0x00\n        /* \"IBWHACK/stakeContract.sol\":2653:2663  msg.sender */\n      caller\n        /* \"IBWHACK/stakeContract.sol\":2642:2664  startTimes[msg.sender] */\n      0xffffffffffffffffffffffffffffffffffffffff\n      and\n      0xffffffffffffffffffffffffffffffffffffffff\n      and\n      dup2\n      mstore\n      0x20\n      add\n      swap1\n      dup2\n      mstore\n      0x20\n      add\n      0x00\n      keccak256\n        /* \"IBWHACK/stakeContract.sol\":2642:2668  startTimes[msg.sender] = 0 */\n      dup2\n      swap1\n      sstore\n      pop\n        /* \"IBWHACK/stakeContract.sol\":2086:2675  {... */\n      pop\n        /* \"IBWHACK/stakeContract.sol\":2058:2675  function unstake() external {... */\n      jump\t// out\n        /* \"IBWHACK/stakeContract.sol\":3182:3315  function updateRewardPerSecond(uint256 _newRewardPerSecond) external onlyOwner {... */\n    tag_33:\n        /* \"@openzeppelin/contracts/access/Ownable.sol\":1094:1107  _checkOwner() */\n      tag_98\n        /* \"@openzeppelin/contracts/access/Ownable.sol\":1094:1105  _checkOwner */\n      tag_99\n        /* \"@openzeppelin/contracts/access/Ownable.sol\":1094:1107  _checkOwner() */\n      jump\t// in\n    tag_98:\n        /* \"IBWHACK/stakeContract.sol\":3289:3308  _newRewardPerSecond */\n      dup1\n        /* \"IBWHACK/stakeContract.sol\":3271:3286  rewardPerSecond */\n      0x02\n        /* \"IBWHACK/stakeContract.sol\":3271:3308  rewardPerSecond = _newRewardPerSecond */\n      dup2\n      swap1\n      sstore\n      pop\n        /* \"IBWHACK/stakeContract.sol\":3182:3315  function updateRewardPerSecond(uint256 _newRewardPerSecond) external onlyOwner {... */\n      pop\n      jump\t// out\n        /* \"IBWHACK/stakeContract.sol\":3403:3536  function updateStakingDuration(uint256 _newStakingDuration) external onlyOwner {... */\n    tag_36:\n        /* \"@openzeppelin/contracts/access/Ownable.sol\":1094:1107  _checkOwner() */\n      tag_102\n        /* \"@openzeppelin/contracts/access/Ownable.sol\":1094:1105  _checkOwner */\n      tag_99\n        /* \"@openzeppelin/contracts/access/Ownable.sol\":1094:1107  _checkOwner() */\n      jump\t// in\n    tag_102:\n        /* \"IBWHACK/stakeContract.sol\":3510:3529  _newStakingDuration */\n      dup1\n        /* \"IBWHACK/stakeContract.sol\":3492:3507  stakingDuration */\n      0x03\n        /* \"IBWHACK/stakeContract.sol\":3492:3529  stakingDuration = _newStakingDuration */\n      dup2\n      swap1\n      sstore\n      pop\n        /* \"IBWHACK/stakeContract.sol\":3403:3536  function updateStakingDuration(uint256 _newStakingDuration) external onlyOwner {... */\n      pop\n      jump\t// out\n        /* \"@openzeppelin/contracts/access/Ownable.sol\":1824:1925  function renounceOwnership() public virtual onlyOwner {... */\n    tag_38:\n        /* \"@openzeppelin/contracts/access/Ownable.sol\":1094:1107  _checkOwner() */\n      tag_105\n        /* \"@openzeppelin/contracts/access/Ownable.sol\":1094:1105  _checkOwner */\n      tag_99\n        /* \"@openzeppelin/contracts/access/Ownable.sol\":1094:1107  _checkOwner() */\n      jump\t// in\n    tag_105:\n        /* \"@openzeppelin/contracts/access/Ownable.sol\":1888:1918  _transferOwnership(address(0)) */\n      tag_107\n        /* \"@openzeppelin/contracts/access/Ownable.sol\":1915:1916  0 */\n      0x00\n        /* \"@openzeppelin/contracts/access/Ownable.sol\":1888:1906  _transferOwnership */\n      tag_108\n        /* \"@openzeppelin/contracts/access/Ownable.sol\":1888:1918  _transferOwnership(address(0)) */\n      jump\t// in\n    tag_107:\n        /* \"@openzeppelin/contracts/access/Ownable.sol\":1824:1925  function renounceOwnership() public virtual onlyOwner {... */\n      jump\t// out\n        /* \"IBWHACK/stakeContract.sol\":543:573  uint256 public stakingDuration */\n    tag_40:\n      sload(0x03)\n      dup2\n      jump\t// out\n        /* \"@openzeppelin/contracts/access/Ownable.sol\":1201:1286  function owner() public view virtual returns (address) {... */\n    tag_43:\n        /* \"@openzeppelin/contracts/access/Ownable.sol\":1247:1254  address */\n      0x00\n        /* \"@openzeppelin/contracts/access/Ownable.sol\":1273:1279  _owner */\n      dup1\n      0x00\n      swap1\n      sload\n      swap1\n      0x0100\n      exp\n      swap1\n      div\n      0xffffffffffffffffffffffffffffffffffffffff\n      and\n        /* \"@openzeppelin/contracts/access/Ownable.sol\":1266:1279  return _owner */\n      swap1\n      pop\n        /* \"@openzeppelin/contracts/access/Ownable.sol\":1201:1286  function owner() public view virtual returns (address) {... */\n      swap1\n      jump\t// out\n        /* \"IBWHACK/stakeContract.sol\":465:495  uint256 public rewardPerSecond */\n    tag_47:\n      sload(0x02)\n      dup2\n      jump\t// out\n        /* \"IBWHACK/stakeContract.sol\":802:844  mapping(address => bool) public isEnrolled */\n    tag_51:\n      mstore(0x20, 0x06)\n      dup1\n      0x00\n      mstore\n      keccak256(0x00, 0x40)\n      0x00\n      swap2\n      pop\n      sload\n      swap1\n      0x0100\n      exp\n      swap1\n      div\n      0xff\n      and\n      dup2\n      jump\t// out\n        /* \"IBWHACK/stakeContract.sol\":1469:2012  function stake(uint256 _amount) external {... */\n    tag_56:\n        /* \"IBWHACK/stakeContract.sol\":1528:1538  isEnrolled */\n      0x06\n        /* \"IBWHACK/stakeContract.sol\":1528:1550  isEnrolled[msg.sender] */\n      0x00\n        /* \"IBWHACK/stakeContract.sol\":1539:1549  msg.sender */\n      caller\n        /* \"IBWHACK/stakeContract.sol\":1528:1550  isEnrolled[msg.sender] */\n      0xffffffffffffffffffffffffffffffffffffffff\n      and\n      0xffffffffffffffffffffffffffffffffffffffff\n      and\n      dup2\n      mstore\n      0x20\n      add\n      swap1\n      dup2\n      mstore\n      0x20\n      add\n      0x00\n      keccak256\n      0x00\n      swap1\n      sload\n      swap1\n      0x0100\n      exp\n      swap1\n      div\n      0xff\n      and\n        /* \"IBWHACK/stakeContract.sol\":1520:1567  require(isEnrolled[msg.sender], \"Not enrolled\") */\n      tag_111\n      jumpi\n      mload(0x40)\n      0x08c379a000000000000000000000000000000000000000000000000000000000\n      dup2\n      mstore\n      0x04\n      add\n      tag_112\n      swap1\n      tag_80\n      jump\t// in\n    tag_112:\n      mload(0x40)\n      dup1\n      swap2\n      sub\n      swap1\n      revert\n    tag_111:\n        /* \"IBWHACK/stakeContract.sol\":1666:1667  0 */\n      0x00\n        /* \"IBWHACK/stakeContract.sol\":1656:1663  _amount */\n      dup2\n        /* \"IBWHACK/stakeContract.sol\":1656:1667  _amount > 0 */\n      gt\n        /* \"IBWHACK/stakeContract.sol\":1648:1701  require(_amount > 0, \"Amount must be greater than 0\") */\n      tag_113\n      jumpi\n      mload(0x40)\n      0x08c379a000000000000000000000000000000000000000000000000000000000\n      dup2\n      mstore\n      0x04\n      add\n      tag_114\n      swap1\n      tag_115\n      jump\t// in\n    tag_114:\n      mload(0x40)\n      dup1\n      swap2\n      sub\n      swap1\n      revert\n    tag_113:\n        /* \"IBWHACK/stakeContract.sol\":1741:1742  0 */\n      0x00\n        /* \"IBWHACK/stakeContract.sol\":1719:1725  stakes */\n      0x04\n        /* \"IBWHACK/stakeContract.sol\":1719:1737  stakes[msg.sender] */\n      0x00\n        /* \"IBWHACK/stakeContract.sol\":1726:1736  msg.sender */\n      caller\n        /* \"IBWHACK/stakeContract.sol\":1719:1737  stakes[msg.sender] */\n      0xffffffffffffffffffffffffffffffffffffffff\n      and\n      0xffffffffffffffffffffffffffffffffffffffff\n      and\n      dup2\n      mstore\n      0x20\n      add\n      swap1\n      dup2\n      mstore\n      0x20\n      add\n      0x00\n      keccak256\n      sload\n        /* \"IBWHACK/stakeContract.sol\":1719:1742  stakes[msg.sender] == 0 */\n      eq\n        /* \"IBWHACK/stakeContract.sol\":1711:1761  require(stakes[msg.sender] == 0, \"Already staked\") */\n      tag_116\n      jumpi\n      mload(0x40)\n      0x08c379a000000000000000000000000000000000000000000000000000000000\n      dup2\n      mstore\n      0x04\n      add\n      tag_117\n      swap1\n      tag_118\n      jump\t// in\n    tag_117:\n      mload(0x40)\n      dup1\n      swap2\n      sub\n      swap1\n      revert\n    tag_116:\n        /* \"IBWHACK/stakeContract.sol\":1857:1868  rewardToken */\n      0x01\n      0x00\n      swap1\n      sload\n      swap1\n      0x0100\n      exp\n      swap1\n      div\n      0xffffffffffffffffffffffffffffffffffffffff\n      and\n        /* \"IBWHACK/stakeContract.sol\":1857:1881  rewardToken.transferFrom */\n      0xffffffffffffffffffffffffffffffffffffffff\n      and\n      0x23b872dd\n        /* \"IBWHACK/stakeContract.sol\":1882:1892  msg.sender */\n      caller\n        /* \"IBWHACK/stakeContract.sol\":1902:1906  this */\n      address\n        /* \"IBWHACK/stakeContract.sol\":1909:1916  _amount */\n      dup5\n        /* \"IBWHACK/stakeContract.sol\":1857:1917  rewardToken.transferFrom(msg.sender, address(this), _amount) */\n      mload(0x40)\n      dup5\n      0xffffffff\n      and\n      0xe0\n      shl\n      dup2\n      mstore\n      0x04\n      add\n      tag_119\n      swap4\n      swap3\n      swap2\n      swap1\n      tag_120\n      jump\t// in\n    tag_119:\n      0x20\n      mload(0x40)\n      dup1\n      dup4\n      sub\n      dup2\n      0x00\n      dup8\n      gas\n      call\n      iszero\n      dup1\n      iszero\n      tag_122\n      jumpi\n      returndatasize\n      0x00\n      dup1\n      returndatacopy\n      revert(0x00, returndatasize)\n    tag_122:\n      pop\n      pop\n      pop\n      pop\n      mload(0x40)\n      returndatasize\n      not(0x1f)\n      0x1f\n      dup3\n      add\n      and\n      dup3\n      add\n      dup1\n      0x40\n      mstore\n      pop\n      dup2\n      add\n      swap1\n      tag_123\n      swap2\n      swap1\n      tag_96\n      jump\t// in\n    tag_123:\n      pop\n        /* \"IBWHACK/stakeContract.sol\":1948:1955  _amount */\n      dup1\n        /* \"IBWHACK/stakeContract.sol\":1927:1933  stakes */\n      0x04\n        /* \"IBWHACK/stakeContract.sol\":1927:1945  stakes[msg.sender] */\n      0x00\n        /* \"IBWHACK/stakeContract.sol\":1934:1944  msg.sender */\n      caller\n        /* \"IBWHACK/stakeContract.sol\":1927:1945  stakes[msg.sender] */\n      0xffffffffffffffffffffffffffffffffffffffff\n      and\n      0xffffffffffffffffffffffffffffffffffffffff\n      and\n      dup2\n      mstore\n      0x20\n      add\n      swap1\n      dup2\n      mstore\n      0x20\n      add\n      0x00\n      keccak256\n        /* \"IBWHACK/stakeContract.sol\":1927:1955  stakes[msg.sender] = _amount */\n      dup2\n      swap1\n      sstore\n      pop\n        /* \"IBWHACK/stakeContract.sol\":1990:2005  block.timestamp */\n      timestamp\n        /* \"IBWHACK/stakeContract.sol\":1965:1975  startTimes */\n      0x05\n        /* \"IBWHACK/stakeContract.sol\":1965:1987  startTimes[msg.sender] */\n      0x00\n        /* \"IBWHACK/stakeContract.sol\":1976:1986  msg.sender */\n      caller\n        /* \"IBWHACK/stakeContract.sol\":1965:1987  startTimes[msg.sender] */\n      0xffffffffffffffffffffffffffffffffffffffff\n      and\n      0xffffffffffffffffffffffffffffffffffffffff\n      and\n      dup2\n      mstore\n      0x20\n      add\n      swap1\n      dup2\n      mstore\n      0x20\n      add\n      0x00\n      keccak256\n        /* \"IBWHACK/stakeContract.sol\":1965:2005  startTimes[msg.sender] = block.timestamp */\n      dup2\n      swap1\n      sstore\n      pop\n        /* \"IBWHACK/stakeContract.sol\":1469:2012  function stake(uint256 _amount) external {... */\n      pop\n      jump\t// out\n        /* \"IBWHACK/stakeContract.sol\":3622:3743  function withdrawRewardTokens(uint256 _amount) external onlyOwner {... */\n    tag_59:\n        /* \"@openzeppelin/contracts/access/Ownable.sol\":1094:1107  _checkOwner() */\n      tag_125\n        /* \"@openzeppelin/contracts/access/Ownable.sol\":1094:1105  _checkOwner */\n      tag_99\n        /* \"@openzeppelin/contracts/access/Ownable.sol\":1094:1107  _checkOwner() */\n      jump\t// in\n    tag_125:\n        /* \"IBWHACK/stakeContract.sol\":3698:3709  rewardToken */\n      0x01\n      0x00\n      swap1\n      sload\n      swap1\n      0x0100\n      exp\n      swap1\n      div\n      0xffffffffffffffffffffffffffffffffffffffff\n      and\n        /* \"IBWHACK/stakeContract.sol\":3698:3718  rewardToken.transfer */\n      0xffffffffffffffffffffffffffffffffffffffff\n      and\n      0xa9059cbb\n        /* \"IBWHACK/stakeContract.sol\":3719:3726  owner() */\n      tag_127\n        /* \"IBWHACK/stakeContract.sol\":3719:3724  owner */\n      tag_43\n        /* \"IBWHACK/stakeContract.sol\":3719:3726  owner() */\n      jump\t// in\n    tag_127:\n        /* \"IBWHACK/stakeContract.sol\":3728:3735  _amount */\n      dup4\n        /* \"IBWHACK/stakeContract.sol\":3698:3736  rewardToken.transfer(owner(), _amount) */\n      mload(0x40)\n      dup4\n      0xffffffff\n      and\n      0xe0\n      shl\n      dup2\n      mstore\n      0x04\n      add\n      tag_128\n      swap3\n      swap2\n      swap1\n      tag_92\n      jump\t// in\n    tag_128:\n      0x20\n      mload(0x40)\n      dup1\n      dup4\n      sub\n      dup2\n      0x00\n      dup8\n      gas\n      call\n      iszero\n      dup1\n      iszero\n      tag_130\n      jumpi\n      returndatasize\n      0x00\n      dup1\n      returndatacopy\n      revert(0x00, returndatasize)\n    tag_130:\n      pop\n      pop\n      pop\n      pop\n      mload(0x40)\n      returndatasize\n      not(0x1f)\n      0x1f\n      dup3\n      add\n      and\n      dup3\n      add\n      dup1\n      0x40\n      mstore\n      pop\n      dup2\n      add\n      swap1\n      tag_131\n      swap2\n      swap1\n      tag_96\n      jump\t// in\n    tag_131:\n      pop\n        /* \"IBWHACK/stakeContract.sol\":3622:3743  function withdrawRewardTokens(uint256 _amount) external onlyOwner {... */\n      pop\n      jump\t// out\n        /* \"IBWHACK/stakeContract.sol\":2732:3093  function calculateReward(address _user) public view returns (uint256) {... */\n    tag_62:\n        /* \"IBWHACK/stakeContract.sol\":2793:2800  uint256 */\n      0x00\n        /* \"IBWHACK/stakeContract.sol\":2854:2869  stakingDuration */\n      sload(0x03)\n        /* \"IBWHACK/stakeContract.sol\":2834:2844  startTimes */\n      0x05\n        /* \"IBWHACK/stakeContract.sol\":2834:2851  startTimes[_user] */\n      0x00\n        /* \"IBWHACK/stakeContract.sol\":2845:2850  _user */\n      dup5\n        /* \"IBWHACK/stakeContract.sol\":2834:2851  startTimes[_user] */\n      0xffffffffffffffffffffffffffffffffffffffff\n      and\n      0xffffffffffffffffffffffffffffffffffffffff\n      and\n      dup2\n      mstore\n      0x20\n      add\n      swap1\n      dup2\n      mstore\n      0x20\n      add\n      0x00\n      keccak256\n      sload\n        /* \"IBWHACK/stakeContract.sol\":2834:2869  startTimes[_user] + stakingDuration */\n      tag_133\n      swap2\n      swap1\n      tag_85\n      jump\t// in\n    tag_133:\n        /* \"IBWHACK/stakeContract.sol\":2816:2831  block.timestamp */\n      timestamp\n        /* \"IBWHACK/stakeContract.sol\":2816:2869  block.timestamp < startTimes[_user] + stakingDuration */\n      lt\n        /* \"IBWHACK/stakeContract.sol\":2812:3019  if (block.timestamp < startTimes[_user] + stakingDuration) {... */\n      iszero\n      tag_134\n      jumpi\n        /* \"IBWHACK/stakeContract.sol\":2885:2903  uint256 stakedTime */\n      0x00\n        /* \"IBWHACK/stakeContract.sol\":2924:2934  startTimes */\n      0x05\n        /* \"IBWHACK/stakeContract.sol\":2924:2941  startTimes[_user] */\n      0x00\n        /* \"IBWHACK/stakeContract.sol\":2935:2940  _user */\n      dup5\n        /* \"IBWHACK/stakeContract.sol\":2924:2941  startTimes[_user] */\n      0xffffffffffffffffffffffffffffffffffffffff\n      and\n      0xffffffffffffffffffffffffffffffffffffffff\n      and\n      dup2\n      mstore\n      0x20\n      add\n      swap1\n      dup2\n      mstore\n      0x20\n      add\n      0x00\n      keccak256\n      sload\n        /* \"IBWHACK/stakeContract.sol\":2906:2921  block.timestamp */\n      timestamp\n        /* \"IBWHACK/stakeContract.sol\":2906:2941  block.timestamp - startTimes[_user] */\n      tag_135\n      swap2\n      swap1\n      tag_136\n      jump\t// in\n    tag_135:\n        /* \"IBWHACK/stakeContract.sol\":2885:2941  uint256 stakedTime = block.timestamp - startTimes[_user] */\n      swap1\n      pop\n        /* \"IBWHACK/stakeContract.sol\":2995:3001  stakes */\n      0x04\n        /* \"IBWHACK/stakeContract.sol\":2995:3008  stakes[_user] */\n      0x00\n        /* \"IBWHACK/stakeContract.sol\":3002:3007  _user */\n      dup5\n        /* \"IBWHACK/stakeContract.sol\":2995:3008  stakes[_user] */\n      0xffffffffffffffffffffffffffffffffffffffff\n      and\n      0xffffffffffffffffffffffffffffffffffffffff\n      and\n      dup2\n      mstore\n      0x20\n      add\n      swap1\n      dup2\n      mstore\n      0x20\n      add\n      0x00\n      keccak256\n      sload\n        /* \"IBWHACK/stakeContract.sol\":2976:2991  rewardPerSecond */\n      sload(0x02)\n        /* \"IBWHACK/stakeContract.sol\":2963:2973  stakedTime */\n      dup3\n        /* \"IBWHACK/stakeContract.sol\":2963:2991  stakedTime * rewardPerSecond */\n      tag_137\n      swap2\n      swap1\n      tag_138\n      jump\t// in\n    tag_137:\n        /* \"IBWHACK/stakeContract.sol\":2962:3008  (stakedTime * rewardPerSecond) * stakes[_user] */\n      tag_139\n      swap2\n      swap1\n      tag_138\n      jump\t// in\n    tag_139:\n        /* \"IBWHACK/stakeContract.sol\":2955:3008  return (stakedTime * rewardPerSecond) * stakes[_user] */\n      swap2\n      pop\n      pop\n      jump(tag_132)\n        /* \"IBWHACK/stakeContract.sol\":2812:3019  if (block.timestamp < startTimes[_user] + stakingDuration) {... */\n    tag_134:\n        /* \"IBWHACK/stakeContract.sol\":3073:3079  stakes */\n      0x04\n        /* \"IBWHACK/stakeContract.sol\":3073:3086  stakes[_user] */\n      0x00\n        /* \"IBWHACK/stakeContract.sol\":3080:3085  _user */\n      dup4\n        /* \"IBWHACK/stakeContract.sol\":3073:3086  stakes[_user] */\n      0xffffffffffffffffffffffffffffffffffffffff\n      and\n      0xffffffffffffffffffffffffffffffffffffffff\n      and\n      dup2\n      mstore\n      0x20\n      add\n      swap1\n      dup2\n      mstore\n      0x20\n      add\n      0x00\n      keccak256\n      sload\n        /* \"IBWHACK/stakeContract.sol\":3054:3069  rewardPerSecond */\n      sload(0x02)\n        /* \"IBWHACK/stakeContract.sol\":3036:3051  stakingDuration */\n      sload(0x03)\n        /* \"IBWHACK/stakeContract.sol\":3036:3069  stakingDuration * rewardPerSecond */\n      tag_140\n      swap2\n      swap1\n      tag_138\n      jump\t// in\n    tag_140:\n        /* \"IBWHACK/stakeContract.sol\":3035:3086  (stakingDuration * rewardPerSecond) * stakes[_user] */\n      tag_141\n      swap2\n      swap1\n      tag_138\n      jump\t// in\n    tag_141:\n        /* \"IBWHACK/stakeContract.sol\":3028:3086  return (stakingDuration * rewardPerSecond) * stakes[_user] */\n      swap1\n      pop\n        /* \"IBWHACK/stakeContract.sol\":2732:3093  function calculateReward(address _user) public view returns (uint256) {... */\n    tag_132:\n      swap2\n      swap1\n      pop\n      jump\t// out\n        /* \"IBWHACK/stakeContract.sol\":1296:1431  function enroll() external {... */\n    tag_65:\n        /* \"IBWHACK/stakeContract.sol\":1342:1352  isEnrolled */\n      0x06\n        /* \"IBWHACK/stakeContract.sol\":1342:1364  isEnrolled[msg.sender] */\n      0x00\n        /* \"IBWHACK/stakeContract.sol\":1353:1363  msg.sender */\n      caller\n        /* \"IBWHACK/stakeContract.sol\":1342:1364  isEnrolled[msg.sender] */\n      0xffffffffffffffffffffffffffffffffffffffff\n      and\n      0xffffffffffffffffffffffffffffffffffffffff\n      and\n      dup2\n      mstore\n      0x20\n      add\n      swap1\n      dup2\n      mstore\n      0x20\n      add\n      0x00\n      keccak256\n      0x00\n      swap1\n      sload\n      swap1\n      0x0100\n      exp\n      swap1\n      div\n      0xff\n      and\n        /* \"IBWHACK/stakeContract.sol\":1341:1364  !isEnrolled[msg.sender] */\n      iszero\n        /* \"IBWHACK/stakeContract.sol\":1333:1385  require(!isEnrolled[msg.sender], \"Already enrolled\") */\n      tag_143\n      jumpi\n      mload(0x40)\n      0x08c379a000000000000000000000000000000000000000000000000000000000\n      dup2\n      mstore\n      0x04\n      add\n      tag_144\n      swap1\n      tag_145\n      jump\t// in\n    tag_144:\n      mload(0x40)\n      dup1\n      swap2\n      sub\n      swap1\n      revert\n    tag_143:\n        /* \"IBWHACK/stakeContract.sol\":1420:1424  true */\n      0x01\n        /* \"IBWHACK/stakeContract.sol\":1395:1405  isEnrolled */\n      0x06\n        /* \"IBWHACK/stakeContract.sol\":1395:1417  isEnrolled[msg.sender] */\n      0x00\n        /* \"IBWHACK/stakeContract.sol\":1406:1416  msg.sender */\n      caller\n        /* \"IBWHACK/stakeContract.sol\":1395:1417  isEnrolled[msg.sender] */\n      0xffffffffffffffffffffffffffffffffffffffff\n      and\n      0xffffffffffffffffffffffffffffffffffffffff\n      and\n      dup2\n      mstore\n      0x20\n      add\n      swap1\n      dup2\n      mstore\n      0x20\n      add\n      0x00\n      keccak256\n      0x00\n        /* \"IBWHACK/stakeContract.sol\":1395:1424  isEnrolled[msg.sender] = true */\n      0x0100\n      exp\n      dup2\n      sload\n      dup2\n      0xff\n      mul\n      not\n      and\n      swap1\n      dup4\n      iszero\n      iszero\n      mul\n      or\n      swap1\n      sstore\n      pop\n        /* \"IBWHACK/stakeContract.sol\":1296:1431  function enroll() external {... */\n      jump\t// out\n        /* \"@openzeppelin/contracts/access/Ownable.sol\":2074:2272  function transferOwnership(address newOwner) public virtual onlyOwner {... */\n    tag_68:\n        /* \"@openzeppelin/contracts/access/Ownable.sol\":1094:1107  _checkOwner() */\n      tag_147\n        /* \"@openzeppelin/contracts/access/Ownable.sol\":1094:1105  _checkOwner */\n      tag_99\n        /* \"@openzeppelin/contracts/access/Ownable.sol\":1094:1107  _checkOwner() */\n      jump\t// in\n    tag_147:\n        /* \"@openzeppelin/contracts/access/Ownable.sol\":2182:2183  0 */\n      0x00\n        /* \"@openzeppelin/contracts/access/Ownable.sol\":2162:2184  newOwner != address(0) */\n      0xffffffffffffffffffffffffffffffffffffffff\n      and\n        /* \"@openzeppelin/contracts/access/Ownable.sol\":2162:2170  newOwner */\n      dup2\n        /* \"@openzeppelin/contracts/access/Ownable.sol\":2162:2184  newOwner != address(0) */\n      0xffffffffffffffffffffffffffffffffffffffff\n      and\n      sub\n        /* \"@openzeppelin/contracts/access/Ownable.sol\":2154:2227  require(newOwner != address(0), \"Ownable: new owner is the zero address\") */\n      tag_149\n      jumpi\n      mload(0x40)\n      0x08c379a000000000000000000000000000000000000000000000000000000000\n      dup2\n      mstore\n      0x04\n      add\n      tag_150\n      swap1\n      tag_151\n      jump\t// in\n    tag_150:\n      mload(0x40)\n      dup1\n      swap2\n      sub\n      swap1\n      revert\n    tag_149:\n        /* \"@openzeppelin/contracts/access/Ownable.sol\":2237:2265  _transferOwnership(newOwner) */\n      tag_152\n        /* \"@openzeppelin/contracts/access/Ownable.sol\":2256:2264  newOwner */\n      dup2\n        /* \"@openzeppelin/contracts/access/Ownable.sol\":2237:2255  _transferOwnership */\n      tag_108\n        /* \"@openzeppelin/contracts/access/Ownable.sol\":2237:2265  _transferOwnership(newOwner) */\n      jump\t// in\n    tag_152:\n        /* \"@openzeppelin/contracts/access/Ownable.sol\":2074:2272  function transferOwnership(address newOwner) public virtual onlyOwner {... */\n      pop\n      jump\t// out\n        /* \"IBWHACK/stakeContract.sol\":709:754  mapping(address => uint256) public startTimes */\n    tag_71:\n      mstore(0x20, 0x05)\n      dup1\n      0x00\n      mstore\n      keccak256(0x00, 0x40)\n      0x00\n      swap2\n      pop\n      swap1\n      pop\n      sload\n      dup2\n      jump\t// out\n        /* \"IBWHACK/stakeContract.sol\":395:420  IERC20 public rewardToken */\n    tag_74:\n      0x01\n      0x00\n      swap1\n      sload\n      swap1\n      0x0100\n      exp\n      swap1\n      div\n      0xffffffffffffffffffffffffffffffffffffffff\n      and\n      dup2\n      jump\t// out\n        /* \"@openzeppelin/contracts/access/Ownable.sol\":1359:1489  function _checkOwner() internal view virtual {... */\n    tag_99:\n        /* \"@openzeppelin/contracts/access/Ownable.sol\":1433:1445  _msgSender() */\n      tag_154\n        /* \"@openzeppelin/contracts/access/Ownable.sol\":1433:1443  _msgSender */\n      tag_155\n        /* \"@openzeppelin/contracts/access/Ownable.sol\":1433:1445  _msgSender() */\n      jump\t// in\n    tag_154:\n        /* \"@openzeppelin/contracts/access/Ownable.sol\":1422:1445  owner() == _msgSender() */\n      0xffffffffffffffffffffffffffffffffffffffff\n      and\n        /* \"@openzeppelin/contracts/access/Ownable.sol\":1422:1429  owner() */\n      tag_156\n        /* \"@openzeppelin/contracts/access/Ownable.sol\":1422:1427  owner */\n      tag_43\n        /* \"@openzeppelin/contracts/access/Ownable.sol\":1422:1429  owner() */\n      jump\t// in\n    tag_156:\n        /* \"@openzeppelin/contracts/access/Ownable.sol\":1422:1445  owner() == _msgSender() */\n      0xffffffffffffffffffffffffffffffffffffffff\n      and\n      eq\n        /* \"@openzeppelin/contracts/access/Ownable.sol\":1414:1482  require(owner() == _msgSender(), \"Ownable: caller is not the owner\") */\n      tag_157\n      jumpi\n      mload(0x40)\n      0x08c379a000000000000000000000000000000000000000000000000000000000\n      dup2\n      mstore\n      0x04\n      add\n      tag_158\n      swap1\n      tag_159\n      jump\t// in\n    tag_158:\n      mload(0x40)\n      dup1\n      swap2\n      sub\n      swap1\n      revert\n    tag_157:\n        /* \"@openzeppelin/contracts/access/Ownable.sol\":1359:1489  function _checkOwner() internal view virtual {... */\n      jump\t// out\n        /* \"@openzeppelin/contracts/access/Ownable.sol\":2426:2613  function _transferOwnership(address newOwner) internal virtual {... */\n    tag_108:\n        /* \"@openzeppelin/contracts/access/Ownable.sol\":2499:2515  address oldOwner */\n      0x00\n        /* \"@openzeppelin/contracts/access/Ownable.sol\":2518:2524  _owner */\n      dup1\n      0x00\n      swap1\n      sload\n      swap1\n      0x0100\n      exp\n      swap1\n      div\n      0xffffffffffffffffffffffffffffffffffffffff\n      and\n        /* \"@openzeppelin/contracts/access/Ownable.sol\":2499:2524  address oldOwner = _owner */\n      swap1\n      pop\n        /* \"@openzeppelin/contracts/access/Ownable.sol\":2543:2551  newOwner */\n      dup2\n        /* \"@openzeppelin/contracts/access/Ownable.sol\":2534:2540  _owner */\n      0x00\n      dup1\n        /* \"@openzeppelin/contracts/access/Ownable.sol\":2534:2551  _owner = newOwner */\n      0x0100\n      exp\n      dup2\n      sload\n      dup2\n      0xffffffffffffffffffffffffffffffffffffffff\n      mul\n      not\n      and\n      swap1\n      dup4\n      0xffffffffffffffffffffffffffffffffffffffff\n      and\n      mul\n      or\n      swap1\n      sstore\n      pop\n        /* \"@openzeppelin/contracts/access/Ownable.sol\":2597:2605  newOwner */\n      dup2\n        /* \"@openzeppelin/contracts/access/Ownable.sol\":2566:2606  OwnershipTransferred(oldOwner, newOwner) */\n      0xffffffffffffffffffffffffffffffffffffffff\n      and\n        /* \"@openzeppelin/contracts/access/Ownable.sol\":2587:2595  oldOwner */\n      dup2\n        /* \"@openzeppelin/contracts/access/Ownable.sol\":2566:2606  OwnershipTransferred(oldOwner, newOwner) */\n      0xffffffffffffffffffffffffffffffffffffffff\n      and\n      0x8be0079c531659141344cd1fd0a4f28419497f9722a3daafe3b4186f6b6457e0\n      mload(0x40)\n      mload(0x40)\n      dup1\n      swap2\n      sub\n      swap1\n      log3\n        /* \"@openzeppelin/contracts/access/Ownable.sol\":2489:2613  {... */\n      pop\n        /* \"@openzeppelin/contracts/access/Ownable.sol\":2426:2613  function _transferOwnership(address newOwner) internal virtual {... */\n      pop\n      jump\t// out\n        /* \"@openzeppelin/contracts/utils/Context.sol\":640:736  function _msgSender() internal view virtual returns (address) {... */\n    tag_155:\n        /* \"@openzeppelin/contracts/utils/Context.sol\":693:700  address */\n      0x00\n        /* \"@openzeppelin/contracts/utils/Context.sol\":719:729  msg.sender */\n      caller\n        /* \"@openzeppelin/contracts/utils/Context.sol\":712:729  return msg.sender */\n      swap1\n      pop\n        /* \"@openzeppelin/contracts/utils/Context.sol\":640:736  function _msgSender() internal view virtual returns (address) {... */\n      swap1\n      jump\t// out\n        /* \"#utility.yul\":88:205   */\n    tag_163:\n        /* \"#utility.yul\":197:198   */\n      0x00\n        /* \"#utility.yul\":194:195   */\n      dup1\n        /* \"#utility.yul\":187:199   */\n      revert\n        /* \"#utility.yul\":334:460   */\n    tag_165:\n        /* \"#utility.yul\":371:378   */\n      0x00\n        /* \"#utility.yul\":411:453   */\n      0xffffffffffffffffffffffffffffffffffffffff\n        /* \"#utility.yul\":404:409   */\n      dup3\n        /* \"#utility.yul\":400:454   */\n      and\n        /* \"#utility.yul\":389:454   */\n      swap1\n      pop\n        /* \"#utility.yul\":334:460   */\n      swap2\n      swap1\n      pop\n      jump\t// out\n        /* \"#utility.yul\":466:562   */\n    tag_166:\n        /* \"#utility.yul\":503:510   */\n      0x00\n        /* \"#utility.yul\":532:556   */\n      tag_207\n        /* \"#utility.yul\":550:555   */\n      dup3\n        /* \"#utility.yul\":532:556   */\n      tag_165\n      jump\t// in\n    tag_207:\n        /* \"#utility.yul\":521:556   */\n      swap1\n      pop\n        /* \"#utility.yul\":466:562   */\n      swap2\n      swap1\n      pop\n      jump\t// out\n        /* \"#utility.yul\":568:690   */\n    tag_167:\n        /* \"#utility.yul\":641:665   */\n      tag_209\n        /* \"#utility.yul\":659:664   */\n      dup2\n        /* \"#utility.yul\":641:665   */\n      tag_166\n      jump\t// in\n    tag_209:\n        /* \"#utility.yul\":634:639   */\n      dup2\n        /* \"#utility.yul\":631:666   */\n      eq\n        /* \"#utility.yul\":621:684   */\n      tag_210\n      jumpi\n        /* \"#utility.yul\":680:681   */\n      0x00\n        /* \"#utility.yul\":677:678   */\n      dup1\n        /* \"#utility.yul\":670:682   */\n      revert\n        /* \"#utility.yul\":621:684   */\n    tag_210:\n        /* \"#utility.yul\":568:690   */\n      pop\n      jump\t// out\n        /* \"#utility.yul\":696:835   */\n    tag_168:\n        /* \"#utility.yul\":742:747   */\n      0x00\n        /* \"#utility.yul\":780:786   */\n      dup2\n        /* \"#utility.yul\":767:787   */\n      calldataload\n        /* \"#utility.yul\":758:787   */\n      swap1\n      pop\n        /* \"#utility.yul\":796:829   */\n      tag_212\n        /* \"#utility.yul\":823:828   */\n      dup2\n        /* \"#utility.yul\":796:829   */\n      tag_167\n      jump\t// in\n    tag_212:\n        /* \"#utility.yul\":696:835   */\n      swap3\n      swap2\n      pop\n      pop\n      jump\t// out\n        /* \"#utility.yul\":841:1170   */\n    tag_24:\n        /* \"#utility.yul\":900:906   */\n      0x00\n        /* \"#utility.yul\":949:951   */\n      0x20\n        /* \"#utility.yul\":937:946   */\n      dup3\n        /* \"#utility.yul\":928:935   */\n      dup5\n        /* \"#utility.yul\":924:947   */\n      sub\n        /* \"#utility.yul\":920:952   */\n      slt\n        /* \"#utility.yul\":917:1036   */\n      iszero\n      tag_214\n      jumpi\n        /* \"#utility.yul\":955:1034   */\n      tag_215\n      tag_163\n      jump\t// in\n    tag_215:\n        /* \"#utility.yul\":917:1036   */\n    tag_214:\n        /* \"#utility.yul\":1075:1076   */\n      0x00\n        /* \"#utility.yul\":1100:1153   */\n      tag_216\n        /* \"#utility.yul\":1145:1152   */\n      dup5\n        /* \"#utility.yul\":1136:1142   */\n      dup3\n        /* \"#utility.yul\":1125:1134   */\n      dup6\n        /* \"#utility.yul\":1121:1143   */\n      add\n        /* \"#utility.yul\":1100:1153   */\n      tag_168\n      jump\t// in\n    tag_216:\n        /* \"#utility.yul\":1090:1153   */\n      swap2\n      pop\n        /* \"#utility.yul\":1046:1163   */\n      pop\n        /* \"#utility.yul\":841:1170   */\n      swap3\n      swap2\n      pop\n      pop\n      jump\t// out\n        /* \"#utility.yul\":1176:1253   */\n    tag_169:\n        /* \"#utility.yul\":1213:1220   */\n      0x00\n        /* \"#utility.yul\":1242:1247   */\n      dup2\n        /* \"#utility.yul\":1231:1247   */\n      swap1\n      pop\n        /* \"#utility.yul\":1176:1253   */\n      swap2\n      swap1\n      pop\n      jump\t// out\n        /* \"#utility.yul\":1259:1377   */\n    tag_170:\n        /* \"#utility.yul\":1346:1370   */\n      tag_219\n        /* \"#utility.yul\":1364:1369   */\n      dup2\n        /* \"#utility.yul\":1346:1370   */\n      tag_169\n      jump\t// in\n    tag_219:\n        /* \"#utility.yul\":1341:1344   */\n      dup3\n        /* \"#utility.yul\":1334:1371   */\n      mstore\n        /* \"#utility.yul\":1259:1377   */\n      pop\n      pop\n      jump\t// out\n        /* \"#utility.yul\":1383:1605   */\n    tag_27:\n        /* \"#utility.yul\":1476:1480   */\n      0x00\n        /* \"#utility.yul\":1514:1516   */\n      0x20\n        /* \"#utility.yul\":1503:1512   */\n      dup3\n        /* \"#utility.yul\":1499:1517   */\n      add\n        /* \"#utility.yul\":1491:1517   */\n      swap1\n      pop\n        /* \"#utility.yul\":1527:1598   */\n      tag_221\n        /* \"#utility.yul\":1595:1596   */\n      0x00\n        /* \"#utility.yul\":1584:1593   */\n      dup4\n        /* \"#utility.yul\":1580:1597   */\n      add\n        /* \"#utility.yul\":1571:1577   */\n      dup5\n        /* \"#utility.yul\":1527:1598   */\n      tag_170\n      jump\t// in\n    tag_221:\n        /* \"#utility.yul\":1383:1605   */\n      swap3\n      swap2\n      pop\n      pop\n      jump\t// out\n        /* \"#utility.yul\":1611:1733   */\n    tag_171:\n        /* \"#utility.yul\":1684:1708   */\n      tag_223\n        /* \"#utility.yul\":1702:1707   */\n      dup2\n        /* \"#utility.yul\":1684:1708   */\n      tag_169\n      jump\t// in\n    tag_223:\n        /* \"#utility.yul\":1677:1682   */\n      dup2\n        /* \"#utility.yul\":1674:1709   */\n      eq\n        /* \"#utility.yul\":1664:1727   */\n      tag_224\n      jumpi\n        /* \"#utility.yul\":1723:1724   */\n      0x00\n        /* \"#utility.yul\":1720:1721   */\n      dup1\n        /* \"#utility.yul\":1713:1725   */\n      revert\n        /* \"#utility.yul\":1664:1727   */\n    tag_224:\n        /* \"#utility.yul\":1611:1733   */\n      pop\n      jump\t// out\n        /* \"#utility.yul\":1739:1878   */\n    tag_172:\n        /* \"#utility.yul\":1785:1790   */\n      0x00\n        /* \"#utility.yul\":1823:1829   */\n      dup2\n        /* \"#utility.yul\":1810:1830   */\n      calldataload\n        /* \"#utility.yul\":1801:1830   */\n      swap1\n      pop\n        /* \"#utility.yul\":1839:1872   */\n      tag_226\n        /* \"#utility.yul\":1866:1871   */\n      dup2\n        /* \"#utility.yul\":1839:1872   */\n      tag_171\n      jump\t// in\n    tag_226:\n        /* \"#utility.yul\":1739:1878   */\n      swap3\n      swap2\n      pop\n      pop\n      jump\t// out\n        /* \"#utility.yul\":1884:2213   */\n    tag_32:\n        /* \"#utility.yul\":1943:1949   */\n      0x00\n        /* \"#utility.yul\":1992:1994   */\n      0x20\n        /* \"#utility.yul\":1980:1989   */\n      dup3\n        /* \"#utility.yul\":1971:1978   */\n      dup5\n        /* \"#utility.yul\":1967:1990   */\n      sub\n        /* \"#utility.yul\":1963:1995   */\n      slt\n        /* \"#utility.yul\":1960:2079   */\n      iszero\n      tag_228\n      jumpi\n        /* \"#utility.yul\":1998:2077   */\n      tag_229\n      tag_163\n      jump\t// in\n    tag_229:\n        /* \"#utility.yul\":1960:2079   */\n    tag_228:\n        /* \"#utility.yul\":2118:2119   */\n      0x00\n        /* \"#utility.yul\":2143:2196   */\n      tag_230\n        /* \"#utility.yul\":2188:2195   */\n      dup5\n        /* \"#utility.yul\":2179:2185   */\n      dup3\n        /* \"#utility.yul\":2168:2177   */\n      dup6\n        /* \"#utility.yul\":2164:2186   */\n      add\n        /* \"#utility.yul\":2143:2196   */\n      tag_172\n      jump\t// in\n    tag_230:\n        /* \"#utility.yul\":2133:2196   */\n      swap2\n      pop\n        /* \"#utility.yul\":2089:2206   */\n      pop\n        /* \"#utility.yul\":1884:2213   */\n      swap3\n      swap2\n      pop\n      pop\n      jump\t// out\n        /* \"#utility.yul\":2219:2337   */\n    tag_173:\n        /* \"#utility.yul\":2306:2330   */\n      tag_232\n        /* \"#utility.yul\":2324:2329   */\n      dup2\n        /* \"#utility.yul\":2306:2330   */\n      tag_166\n      jump\t// in\n    tag_232:\n        /* \"#utility.yul\":2301:2304   */\n      dup3\n        /* \"#utility.yul\":2294:2331   */\n      mstore\n        /* \"#utility.yul\":2219:2337   */\n      pop\n      pop\n      jump\t// out\n        /* \"#utility.yul\":2343:2565   */\n    tag_45:\n        /* \"#utility.yul\":2436:2440   */\n      0x00\n        /* \"#utility.yul\":2474:2476   */\n      0x20\n        /* \"#utility.yul\":2463:2472   */\n      dup3\n        /* \"#utility.yul\":2459:2477   */\n      add\n        /* \"#utility.yul\":2451:2477   */\n      swap1\n      pop\n        /* \"#utility.yul\":2487:2558   */\n      tag_234\n        /* \"#utility.yul\":2555:2556   */\n      0x00\n        /* \"#utility.yul\":2544:2553   */\n      dup4\n        /* \"#utility.yul\":2540:2557   */\n      add\n        /* \"#utility.yul\":2531:2537   */\n      dup5\n        /* \"#utility.yul\":2487:2558   */\n      tag_173\n      jump\t// in\n    tag_234:\n        /* \"#utility.yul\":2343:2565   */\n      swap3\n      swap2\n      pop\n      pop\n      jump\t// out\n        /* \"#utility.yul\":2571:2661   */\n    tag_174:\n        /* \"#utility.yul\":2605:2612   */\n      0x00\n        /* \"#utility.yul\":2648:2653   */\n      dup2\n        /* \"#utility.yul\":2641:2654   */\n      iszero\n        /* \"#utility.yul\":2634:2655   */\n      iszero\n        /* \"#utility.yul\":2623:2655   */\n      swap1\n      pop\n        /* \"#utility.yul\":2571:2661   */\n      swap2\n      swap1\n      pop\n      jump\t// out\n        /* \"#utility.yul\":2667:2776   */\n    tag_175:\n        /* \"#utility.yul\":2748:2769   */\n      tag_237\n        /* \"#utility.yul\":2763:2768   */\n      dup2\n        /* \"#utility.yul\":2748:2769   */\n      tag_174\n      jump\t// in\n    tag_237:\n        /* \"#utility.yul\":2743:2746   */\n      dup3\n        /* \"#utility.yul\":2736:2770   */\n      mstore\n        /* \"#utility.yul\":2667:2776   */\n      pop\n      pop\n      jump\t// out\n        /* \"#utility.yul\":2782:2992   */\n    tag_53:\n        /* \"#utility.yul\":2869:2873   */\n      0x00\n        /* \"#utility.yul\":2907:2909   */\n      0x20\n        /* \"#utility.yul\":2896:2905   */\n      dup3\n        /* \"#utility.yul\":2892:2910   */\n      add\n        /* \"#utility.yul\":2884:2910   */\n      swap1\n      pop\n        /* \"#utility.yul\":2920:2985   */\n      tag_239\n        /* \"#utility.yul\":2982:2983   */\n      0x00\n        /* \"#utility.yul\":2971:2980   */\n      dup4\n        /* \"#utility.yul\":2967:2984   */\n      add\n        /* \"#utility.yul\":2958:2964   */\n      dup5\n        /* \"#utility.yul\":2920:2985   */\n      tag_175\n      jump\t// in\n    tag_239:\n        /* \"#utility.yul\":2782:2992   */\n      swap3\n      swap2\n      pop\n      pop\n      jump\t// out\n        /* \"#utility.yul\":2998:3058   */\n    tag_176:\n        /* \"#utility.yul\":3026:3029   */\n      0x00\n        /* \"#utility.yul\":3047:3052   */\n      dup2\n        /* \"#utility.yul\":3040:3052   */\n      swap1\n      pop\n        /* \"#utility.yul\":2998:3058   */\n      swap2\n      swap1\n      pop\n      jump\t// out\n        /* \"#utility.yul\":3064:3206   */\n    tag_177:\n        /* \"#utility.yul\":3114:3123   */\n      0x00\n        /* \"#utility.yul\":3147:3200   */\n      tag_242\n        /* \"#utility.yul\":3165:3199   */\n      tag_243\n        /* \"#utility.yul\":3174:3198   */\n      tag_244\n        /* \"#utility.yul\":3192:3197   */\n      dup5\n        /* \"#utility.yul\":3174:3198   */\n      tag_165\n      jump\t// in\n    tag_244:\n        /* \"#utility.yul\":3165:3199   */\n      tag_176\n      jump\t// in\n    tag_243:\n        /* \"#utility.yul\":3147:3200   */\n      tag_165\n      jump\t// in\n    tag_242:\n        /* \"#utility.yul\":3134:3200   */\n      swap1\n      pop\n        /* \"#utility.yul\":3064:3206   */\n      swap2\n      swap1\n      pop\n      jump\t// out\n        /* \"#utility.yul\":3212:3338   */\n    tag_178:\n        /* \"#utility.yul\":3262:3271   */\n      0x00\n        /* \"#utility.yul\":3295:3332   */\n      tag_246\n        /* \"#utility.yul\":3326:3331   */\n      dup3\n        /* \"#utility.yul\":3295:3332   */\n      tag_177\n      jump\t// in\n    tag_246:\n        /* \"#utility.yul\":3282:3332   */\n      swap1\n      pop\n        /* \"#utility.yul\":3212:3338   */\n      swap2\n      swap1\n      pop\n      jump\t// out\n        /* \"#utility.yul\":3344:3484   */\n    tag_179:\n        /* \"#utility.yul\":3408:3417   */\n      0x00\n        /* \"#utility.yul\":3441:3478   */\n      tag_248\n        /* \"#utility.yul\":3472:3477   */\n      dup3\n        /* \"#utility.yul\":3441:3478   */\n      tag_178\n      jump\t// in\n    tag_248:\n        /* \"#utility.yul\":3428:3478   */\n      swap1\n      pop\n        /* \"#utility.yul\":3344:3484   */\n      swap2\n      swap1\n      pop\n      jump\t// out\n        /* \"#utility.yul\":3490:3649   */\n    tag_180:\n        /* \"#utility.yul\":3591:3642   */\n      tag_250\n        /* \"#utility.yul\":3636:3641   */\n      dup2\n        /* \"#utility.yul\":3591:3642   */\n      tag_179\n      jump\t// in\n    tag_250:\n        /* \"#utility.yul\":3586:3589   */\n      dup3\n        /* \"#utility.yul\":3579:3643   */\n      mstore\n        /* \"#utility.yul\":3490:3649   */\n      pop\n      pop\n      jump\t// out\n        /* \"#utility.yul\":3655:3905   */\n    tag_76:\n        /* \"#utility.yul\":3762:3766   */\n      0x00\n        /* \"#utility.yul\":3800:3802   */\n      0x20\n        /* \"#utility.yul\":3789:3798   */\n      dup3\n        /* \"#utility.yul\":3785:3803   */\n      add\n        /* \"#utility.yul\":3777:3803   */\n      swap1\n      pop\n        /* \"#utility.yul\":3813:3898   */\n      tag_252\n        /* \"#utility.yul\":3895:3896   */\n      0x00\n        /* \"#utility.yul\":3884:3893   */\n      dup4\n        /* \"#utility.yul\":3880:3897   */\n      add\n        /* \"#utility.yul\":3871:3877   */\n      dup5\n        /* \"#utility.yul\":3813:3898   */\n      tag_180\n      jump\t// in\n    tag_252:\n        /* \"#utility.yul\":3655:3905   */\n      swap3\n      swap2\n      pop\n      pop\n      jump\t// out\n        /* \"#utility.yul\":3911:4080   */\n    tag_181:\n        /* \"#utility.yul\":3995:4006   */\n      0x00\n        /* \"#utility.yul\":4029:4035   */\n      dup3\n        /* \"#utility.yul\":4024:4027   */\n      dup3\n        /* \"#utility.yul\":4017:4036   */\n      mstore\n        /* \"#utility.yul\":4069:4073   */\n      0x20\n        /* \"#utility.yul\":4064:4067   */\n      dup3\n        /* \"#utility.yul\":4060:4074   */\n      add\n        /* \"#utility.yul\":4045:4074   */\n      swap1\n      pop\n        /* \"#utility.yul\":3911:4080   */\n      swap3\n      swap2\n      pop\n      pop\n      jump\t// out\n        /* \"#utility.yul\":4086:4248   */\n    tag_182:\n        /* \"#utility.yul\":4226:4240   */\n      0x4e6f7420656e726f6c6c65640000000000000000000000000000000000000000\n        /* \"#utility.yul\":4222:4223   */\n      0x00\n        /* \"#utility.yul\":4214:4220   */\n      dup3\n        /* \"#utility.yul\":4210:4224   */\n      add\n        /* \"#utility.yul\":4203:4241   */\n      mstore\n        /* \"#utility.yul\":4086:4248   */\n      pop\n      jump\t// out\n        /* \"#utility.yul\":4254:4620   */\n    tag_183:\n        /* \"#utility.yul\":4396:4399   */\n      0x00\n        /* \"#utility.yul\":4417:4484   */\n      tag_256\n        /* \"#utility.yul\":4481:4483   */\n      0x0c\n        /* \"#utility.yul\":4476:4479   */\n      dup4\n        /* \"#utility.yul\":4417:4484   */\n      tag_181\n      jump\t// in\n    tag_256:\n        /* \"#utility.yul\":4410:4484   */\n      swap2\n      pop\n        /* \"#utility.yul\":4493:4586   */\n      tag_257\n        /* \"#utility.yul\":4582:4585   */\n      dup3\n        /* \"#utility.yul\":4493:4586   */\n      tag_182\n      jump\t// in\n    tag_257:\n        /* \"#utility.yul\":4611:4613   */\n      0x20\n        /* \"#utility.yul\":4606:4609   */\n      dup3\n        /* \"#utility.yul\":4602:4614   */\n      add\n        /* \"#utility.yul\":4595:4614   */\n      swap1\n      pop\n        /* \"#utility.yul\":4254:4620   */\n      swap2\n      swap1\n      pop\n      jump\t// out\n        /* \"#utility.yul\":4626:5045   */\n    tag_80:\n        /* \"#utility.yul\":4792:4796   */\n      0x00\n        /* \"#utility.yul\":4830:4832   */\n      0x20\n        /* \"#utility.yul\":4819:4828   */\n      dup3\n        /* \"#utility.yul\":4815:4833   */\n      add\n        /* \"#utility.yul\":4807:4833   */\n      swap1\n      pop\n        /* \"#utility.yul\":4879:4888   */\n      dup2\n        /* \"#utility.yul\":4873:4877   */\n      dup2\n        /* \"#utility.yul\":4869:4889   */\n      sub\n        /* \"#utility.yul\":4865:4866   */\n      0x00\n        /* \"#utility.yul\":4854:4863   */\n      dup4\n        /* \"#utility.yul\":4850:4867   */\n      add\n        /* \"#utility.yul\":4843:4890   */\n      mstore\n        /* \"#utility.yul\":4907:5038   */\n      tag_259\n        /* \"#utility.yul\":5033:5037   */\n      dup2\n        /* \"#utility.yul\":4907:5038   */\n      tag_183\n      jump\t// in\n    tag_259:\n        /* \"#utility.yul\":4899:5038   */\n      swap1\n      pop\n        /* \"#utility.yul\":4626:5045   */\n      swap2\n      swap1\n      pop\n      jump\t// out\n        /* \"#utility.yul\":5051:5217   */\n    tag_184:\n        /* \"#utility.yul\":5191:5209   */\n      0x4e6f207374616b656420616d6f756e7400000000000000000000000000000000\n        /* \"#utility.yul\":5187:5188   */\n      0x00\n        /* \"#utility.yul\":5179:5185   */\n      dup3\n        /* \"#utility.yul\":5175:5189   */\n      add\n        /* \"#utility.yul\":5168:5210   */\n      mstore\n        /* \"#utility.yul\":5051:5217   */\n      pop\n      jump\t// out\n        /* \"#utility.yul\":5223:5589   */\n    tag_185:\n        /* \"#utility.yul\":5365:5368   */\n      0x00\n        /* \"#utility.yul\":5386:5453   */\n      tag_262\n        /* \"#utility.yul\":5450:5452   */\n      0x10\n        /* \"#utility.yul\":5445:5448   */\n      dup4\n        /* \"#utility.yul\":5386:5453   */\n      tag_181\n      jump\t// in\n    tag_262:\n        /* \"#utility.yul\":5379:5453   */\n      swap2\n      pop\n        /* \"#utility.yul\":5462:5555   */\n      tag_263\n        /* \"#utility.yul\":5551:5554   */\n      dup3\n        /* \"#utility.yul\":5462:5555   */\n      tag_184\n      jump\t// in\n    tag_263:\n        /* \"#utility.yul\":5580:5582   */\n      0x20\n        /* \"#utility.yul\":5575:5578   */\n      dup3\n        /* \"#utility.yul\":5571:5583   */\n      add\n        /* \"#utility.yul\":5564:5583   */\n      swap1\n      pop\n        /* \"#utility.yul\":5223:5589   */\n      swap2\n      swap1\n      pop\n      jump\t// out\n        /* \"#utility.yul\":5595:6014   */\n    tag_83:\n        /* \"#utility.yul\":5761:5765   */\n      0x00\n        /* \"#utility.yul\":5799:5801   */\n      0x20\n        /* \"#utility.yul\":5788:5797   */\n      dup3\n        /* \"#utility.yul\":5784:5802   */\n      add\n        /* \"#utility.yul\":5776:5802   */\n      swap1\n      pop\n        /* \"#utility.yul\":5848:5857   */\n      dup2\n        /* \"#utility.yul\":5842:5846   */\n      dup2\n        /* \"#utility.yul\":5838:5858   */\n      sub\n        /* \"#utility.yul\":5834:5835   */\n      0x00\n        /* \"#utility.yul\":5823:5832   */\n      dup4\n        /* \"#utility.yul\":5819:5836   */\n      add\n        /* \"#utility.yul\":5812:5859   */\n      mstore\n        /* \"#utility.yul\":5876:6007   */\n      tag_265\n        /* \"#utility.yul\":6002:6006   */\n      dup2\n        /* \"#utility.yul\":5876:6007   */\n      tag_185\n      jump\t// in\n    tag_265:\n        /* \"#utility.yul\":5868:6007   */\n      swap1\n      pop\n        /* \"#utility.yul\":5595:6014   */\n      swap2\n      swap1\n      pop\n      jump\t// out\n        /* \"#utility.yul\":6020:6200   */\n    tag_186:\n        /* \"#utility.yul\":6068:6145   */\n      0x4e487b7100000000000000000000000000000000000000000000000000000000\n        /* \"#utility.yul\":6065:6066   */\n      0x00\n        /* \"#utility.yul\":6058:6146   */\n      mstore\n        /* \"#utility.yul\":6165:6169   */\n      0x11\n        /* \"#utility.yul\":6162:6163   */\n      0x04\n        /* \"#utility.yul\":6155:6170   */\n      mstore\n        /* \"#utility.yul\":6189:6193   */\n      0x24\n        /* \"#utility.yul\":6186:6187   */\n      0x00\n        /* \"#utility.yul\":6179:6194   */\n      revert\n        /* \"#utility.yul\":6206:6397   */\n    tag_85:\n        /* \"#utility.yul\":6246:6249   */\n      0x00\n        /* \"#utility.yul\":6265:6285   */\n      tag_268\n        /* \"#utility.yul\":6283:6284   */\n      dup3\n        /* \"#utility.yul\":6265:6285   */\n      tag_169\n      jump\t// in\n    tag_268:\n        /* \"#utility.yul\":6260:6285   */\n      swap2\n      pop\n        /* \"#utility.yul\":6299:6319   */\n      tag_269\n        /* \"#utility.yul\":6317:6318   */\n      dup4\n        /* \"#utility.yul\":6299:6319   */\n      tag_169\n      jump\t// in\n    tag_269:\n        /* \"#utility.yul\":6294:6319   */\n      swap3\n      pop\n        /* \"#utility.yul\":6342:6343   */\n      dup3\n        /* \"#utility.yul\":6339:6340   */\n      dup3\n        /* \"#utility.yul\":6335:6344   */\n      add\n        /* \"#utility.yul\":6328:6344   */\n      swap1\n      pop\n        /* \"#utility.yul\":6363:6366   */\n      dup1\n        /* \"#utility.yul\":6360:6361   */\n      dup3\n        /* \"#utility.yul\":6357:6367   */\n      gt\n        /* \"#utility.yul\":6354:6390   */\n      iszero\n      tag_270\n      jumpi\n        /* \"#utility.yul\":6370:6388   */\n      tag_271\n      tag_186\n      jump\t// in\n    tag_271:\n        /* \"#utility.yul\":6354:6390   */\n    tag_270:\n        /* \"#utility.yul\":6206:6397   */\n      swap3\n      swap2\n      pop\n      pop\n      jump\t// out\n        /* \"#utility.yul\":6403:6580   */\n    tag_187:\n        /* \"#utility.yul\":6543:6572   */\n      0x5374616b696e67206475726174696f6e206e6f74207061737365640000000000\n        /* \"#utility.yul\":6539:6540   */\n      0x00\n        /* \"#utility.yul\":6531:6537   */\n      dup3\n        /* \"#utility.yul\":6527:6541   */\n      add\n        /* \"#utility.yul\":6520:6573   */\n      mstore\n        /* \"#utility.yul\":6403:6580   */\n      pop\n      jump\t// out\n        /* \"#utility.yul\":6586:6952   */\n    tag_188:\n        /* \"#utility.yul\":6728:6731   */\n      0x00\n        /* \"#utility.yul\":6749:6816   */\n      tag_274\n        /* \"#utility.yul\":6813:6815   */\n      0x1b\n        /* \"#utility.yul\":6808:6811   */\n      dup4\n        /* \"#utility.yul\":6749:6816   */\n      tag_181\n      jump\t// in\n    tag_274:\n        /* \"#utility.yul\":6742:6816   */\n      swap2\n      pop\n        /* \"#utility.yul\":6825:6918   */\n      tag_275\n        /* \"#utility.yul\":6914:6917   */\n      dup3\n        /* \"#utility.yul\":6825:6918   */\n      tag_187\n      jump\t// in\n    tag_275:\n        /* \"#utility.yul\":6943:6945   */\n      0x20\n        /* \"#utility.yul\":6938:6941   */\n      dup3\n        /* \"#utility.yul\":6934:6946   */\n      add\n        /* \"#utility.yul\":6927:6946   */\n      swap1\n      pop\n        /* \"#utility.yul\":6586:6952   */\n      swap2\n      swap1\n      pop\n      jump\t// out\n        /* \"#utility.yul\":6958:7377   */\n    tag_88:\n        /* \"#utility.yul\":7124:7128   */\n      0x00\n        /* \"#utility.yul\":7162:7164   */\n      0x20\n        /* \"#utility.yul\":7151:7160   */\n      dup3\n        /* \"#utility.yul\":7147:7165   */\n      add\n        /* \"#utility.yul\":7139:7165   */\n      swap1\n      pop\n        /* \"#utility.yul\":7211:7220   */\n      dup2\n        /* \"#utility.yul\":7205:7209   */\n      dup2\n        /* \"#utility.yul\":7201:7221   */\n      sub\n        /* \"#utility.yul\":7197:7198   */\n      0x00\n        /* \"#utility.yul\":7186:7195   */\n      dup4\n        /* \"#utility.yul\":7182:7199   */\n      add\n        /* \"#utility.yul\":7175:7222   */\n      mstore\n        /* \"#utility.yul\":7239:7370   */\n      tag_277\n        /* \"#utility.yul\":7365:7369   */\n      dup2\n        /* \"#utility.yul\":7239:7370   */\n      tag_188\n      jump\t// in\n    tag_277:\n        /* \"#utility.yul\":7231:7370   */\n      swap1\n      pop\n        /* \"#utility.yul\":6958:7377   */\n      swap2\n      swap1\n      pop\n      jump\t// out\n        /* \"#utility.yul\":7383:7715   */\n    tag_92:\n        /* \"#utility.yul\":7504:7508   */\n      0x00\n        /* \"#utility.yul\":7542:7544   */\n      0x40\n        /* \"#utility.yul\":7531:7540   */\n      dup3\n        /* \"#utility.yul\":7527:7545   */\n      add\n        /* \"#utility.yul\":7519:7545   */\n      swap1\n      pop\n        /* \"#utility.yul\":7555:7626   */\n      tag_279\n        /* \"#utility.yul\":7623:7624   */\n      0x00\n        /* \"#utility.yul\":7612:7621   */\n      dup4\n        /* \"#utility.yul\":7608:7625   */\n      add\n        /* \"#utility.yul\":7599:7605   */\n      dup6\n        /* \"#utility.yul\":7555:7626   */\n      tag_173\n      jump\t// in\n    tag_279:\n        /* \"#utility.yul\":7636:7708   */\n      tag_280\n        /* \"#utility.yul\":7704:7706   */\n      0x20\n        /* \"#utility.yul\":7693:7702   */\n      dup4\n        /* \"#utility.yul\":7689:7707   */\n      add\n        /* \"#utility.yul\":7680:7686   */\n      dup5\n        /* \"#utility.yul\":7636:7708   */\n      tag_170\n      jump\t// in\n    tag_280:\n        /* \"#utility.yul\":7383:7715   */\n      swap4\n      swap3\n      pop\n      pop\n      pop\n      jump\t// out\n        /* \"#utility.yul\":7721:7837   */\n    tag_189:\n        /* \"#utility.yul\":7791:7812   */\n      tag_282\n        /* \"#utility.yul\":7806:7811   */\n      dup2\n        /* \"#utility.yul\":7791:7812   */\n      tag_174\n      jump\t// in\n    tag_282:\n        /* \"#utility.yul\":7784:7789   */\n      dup2\n        /* \"#utility.yul\":7781:7813   */\n      eq\n        /* \"#utility.yul\":7771:7831   */\n      tag_283\n      jumpi\n        /* \"#utility.yul\":7827:7828   */\n      0x00\n        /* \"#utility.yul\":7824:7825   */\n      dup1\n        /* \"#utility.yul\":7817:7829   */\n      revert\n        /* \"#utility.yul\":7771:7831   */\n    tag_283:\n        /* \"#utility.yul\":7721:7837   */\n      pop\n      jump\t// out\n        /* \"#utility.yul\":7843:7980   */\n    tag_190:\n        /* \"#utility.yul\":7897:7902   */\n      0x00\n        /* \"#utility.yul\":7928:7934   */\n      dup2\n        /* \"#utility.yul\":7922:7935   */\n      mload\n        /* \"#utility.yul\":7913:7935   */\n      swap1\n      pop\n        /* \"#utility.yul\":7944:7974   */\n      tag_285\n        /* \"#utility.yul\":7968:7973   */\n      dup2\n        /* \"#utility.yul\":7944:7974   */\n      tag_189\n      jump\t// in\n    tag_285:\n        /* \"#utility.yul\":7843:7980   */\n      swap3\n      swap2\n      pop\n      pop\n      jump\t// out\n        /* \"#utility.yul\":7986:8331   */\n    tag_96:\n        /* \"#utility.yul\":8053:8059   */\n      0x00\n        /* \"#utility.yul\":8102:8104   */\n      0x20\n        /* \"#utility.yul\":8090:8099   */\n      dup3\n        /* \"#utility.yul\":8081:8088   */\n      dup5\n        /* \"#utility.yul\":8077:8100   */\n      sub\n        /* \"#utility.yul\":8073:8105   */\n      slt\n        /* \"#utility.yul\":8070:8189   */\n      iszero\n      tag_287\n      jumpi\n        /* \"#utility.yul\":8108:8187   */\n      tag_288\n      tag_163\n      jump\t// in\n    tag_288:\n        /* \"#utility.yul\":8070:8189   */\n    tag_287:\n        /* \"#utility.yul\":8228:8229   */\n      0x00\n        /* \"#utility.yul\":8253:8314   */\n      tag_289\n        /* \"#utility.yul\":8306:8313   */\n      dup5\n        /* \"#utility.yul\":8297:8303   */\n      dup3\n        /* \"#utility.yul\":8286:8295   */\n      dup6\n        /* \"#utility.yul\":8282:8304   */\n      add\n        /* \"#utility.yul\":8253:8314   */\n      tag_190\n      jump\t// in\n    tag_289:\n        /* \"#utility.yul\":8243:8314   */\n      swap2\n      pop\n        /* \"#utility.yul\":8199:8324   */\n      pop\n        /* \"#utility.yul\":7986:8331   */\n      swap3\n      swap2\n      pop\n      pop\n      jump\t// out\n        /* \"#utility.yul\":8337:8516   */\n    tag_191:\n        /* \"#utility.yul\":8477:8508   */\n      0x416d6f756e74206d7573742062652067726561746572207468616e2030000000\n        /* \"#utility.yul\":8473:8474   */\n      0x00\n        /* \"#utility.yul\":8465:8471   */\n      dup3\n        /* \"#utility.yul\":8461:8475   */\n      add\n        /* \"#utility.yul\":8454:8509   */\n      mstore\n        /* \"#utility.yul\":8337:8516   */\n      pop\n      jump\t// out\n        /* \"#utility.yul\":8522:8888   */\n    tag_192:\n        /* \"#utility.yul\":8664:8667   */\n      0x00\n        /* \"#utility.yul\":8685:8752   */\n      tag_292\n        /* \"#utility.yul\":8749:8751   */\n      0x1d\n        /* \"#utility.yul\":8744:8747   */\n      dup4\n        /* \"#utility.yul\":8685:8752   */\n      tag_181\n      jump\t// in\n    tag_292:\n        /* \"#utility.yul\":8678:8752   */\n      swap2\n      pop\n        /* \"#utility.yul\":8761:8854   */\n      tag_293\n        /* \"#utility.yul\":8850:8853   */\n      dup3\n        /* \"#utility.yul\":8761:8854   */\n      tag_191\n      jump\t// in\n    tag_293:\n        /* \"#utility.yul\":8879:8881   */\n      0x20\n        /* \"#utility.yul\":8874:8877   */\n      dup3\n        /* \"#utility.yul\":8870:8882   */\n      add\n        /* \"#utility.yul\":8863:8882   */\n      swap1\n      pop\n        /* \"#utility.yul\":8522:8888   */\n      swap2\n      swap1\n      pop\n      jump\t// out\n        /* \"#utility.yul\":8894:9313   */\n    tag_115:\n        /* \"#utility.yul\":9060:9064   */\n      0x00\n        /* \"#utility.yul\":9098:9100   */\n      0x20\n        /* \"#utility.yul\":9087:9096   */\n      dup3\n        /* \"#utility.yul\":9083:9101   */\n      add\n        /* \"#utility.yul\":9075:9101   */\n      swap1\n      pop\n        /* \"#utility.yul\":9147:9156   */\n      dup2\n        /* \"#utility.yul\":9141:9145   */\n      dup2\n        /* \"#utility.yul\":9137:9157   */\n      sub\n        /* \"#utility.yul\":9133:9134   */\n      0x00\n        /* \"#utility.yul\":9122:9131   */\n      dup4\n        /* \"#utility.yul\":9118:9135   */\n      add\n        /* \"#utility.yul\":9111:9158   */\n      mstore\n        /* \"#utility.yul\":9175:9306   */\n      tag_295\n        /* \"#utility.yul\":9301:9305   */\n      dup2\n        /* \"#utility.yul\":9175:9306   */\n      tag_192\n      jump\t// in\n    tag_295:\n        /* \"#utility.yul\":9167:9306   */\n      swap1\n      pop\n        /* \"#utility.yul\":8894:9313   */\n      swap2\n      swap1\n      pop\n      jump\t// out\n        /* \"#utility.yul\":9319:9483   */\n    tag_193:\n        /* \"#utility.yul\":9459:9475   */\n      0x416c7265616479207374616b6564000000000000000000000000000000000000\n        /* \"#utility.yul\":9455:9456   */\n      0x00\n        /* \"#utility.yul\":9447:9453   */\n      dup3\n        /* \"#utility.yul\":9443:9457   */\n      add\n        /* \"#utility.yul\":9436:9476   */\n      mstore\n        /* \"#utility.yul\":9319:9483   */\n      pop\n      jump\t// out\n        /* \"#utility.yul\":9489:9855   */\n    tag_194:\n        /* \"#utility.yul\":9631:9634   */\n      0x00\n        /* \"#utility.yul\":9652:9719   */\n      tag_298\n        /* \"#utility.yul\":9716:9718   */\n      0x0e\n        /* \"#utility.yul\":9711:9714   */\n      dup4\n        /* \"#utility.yul\":9652:9719   */\n      tag_181\n      jump\t// in\n    tag_298:\n        /* \"#utility.yul\":9645:9719   */\n      swap2\n      pop\n        /* \"#utility.yul\":9728:9821   */\n      tag_299\n        /* \"#utility.yul\":9817:9820   */\n      dup3\n        /* \"#utility.yul\":9728:9821   */\n      tag_193\n      jump\t// in\n    tag_299:\n        /* \"#utility.yul\":9846:9848   */\n      0x20\n        /* \"#utility.yul\":9841:9844   */\n      dup3\n        /* \"#utility.yul\":9837:9849   */\n      add\n        /* \"#utility.yul\":9830:9849   */\n      swap1\n      pop\n        /* \"#utility.yul\":9489:9855   */\n      swap2\n      swap1\n      pop\n      jump\t// out\n        /* \"#utility.yul\":9861:10280   */\n    tag_118:\n        /* \"#utility.yul\":10027:10031   */\n      0x00\n        /* \"#utility.yul\":10065:10067   */\n      0x20\n        /* \"#utility.yul\":10054:10063   */\n      dup3\n        /* \"#utility.yul\":10050:10068   */\n      add\n        /* \"#utility.yul\":10042:10068   */\n      swap1\n      pop\n        /* \"#utility.yul\":10114:10123   */\n      dup2\n        /* \"#utility.yul\":10108:10112   */\n      dup2\n        /* \"#utility.yul\":10104:10124   */\n      sub\n        /* \"#utility.yul\":10100:10101   */\n      0x00\n        /* \"#utility.yul\":10089:10098   */\n      dup4\n        /* \"#utility.yul\":10085:10102   */\n      add\n        /* \"#utility.yul\":10078:10125   */\n      mstore\n        /* \"#utility.yul\":10142:10273   */\n      tag_301\n        /* \"#utility.yul\":10268:10272   */\n      dup2\n        /* \"#utility.yul\":10142:10273   */\n      tag_194\n      jump\t// in\n    tag_301:\n        /* \"#utility.yul\":10134:10273   */\n      swap1\n      pop\n        /* \"#utility.yul\":9861:10280   */\n      swap2\n      swap1\n      pop\n      jump\t// out\n        /* \"#utility.yul\":10286:10728   */\n    tag_120:\n        /* \"#utility.yul\":10435:10439   */\n      0x00\n        /* \"#utility.yul\":10473:10475   */\n      0x60\n        /* \"#utility.yul\":10462:10471   */\n      dup3\n        /* \"#utility.yul\":10458:10476   */\n      add\n        /* \"#utility.yul\":10450:10476   */\n      swap1\n      pop\n        /* \"#utility.yul\":10486:10557   */\n      tag_303\n        /* \"#utility.yul\":10554:10555   */\n      0x00\n        /* \"#utility.yul\":10543:10552   */\n      dup4\n        /* \"#utility.yul\":10539:10556   */\n      add\n        /* \"#utility.yul\":10530:10536   */\n      dup7\n        /* \"#utility.yul\":10486:10557   */\n      tag_173\n      jump\t// in\n    tag_303:\n        /* \"#utility.yul\":10567:10639   */\n      tag_304\n        /* \"#utility.yul\":10635:10637   */\n      0x20\n        /* \"#utility.yul\":10624:10633   */\n      dup4\n        /* \"#utility.yul\":10620:10638   */\n      add\n        /* \"#utility.yul\":10611:10617   */\n      dup6\n        /* \"#utility.yul\":10567:10639   */\n      tag_173\n      jump\t// in\n    tag_304:\n        /* \"#utility.yul\":10649:10721   */\n      tag_305\n        /* \"#utility.yul\":10717:10719   */\n      0x40\n        /* \"#utility.yul\":10706:10715   */\n      dup4\n        /* \"#utility.yul\":10702:10720   */\n      add\n        /* \"#utility.yul\":10693:10699   */\n      dup5\n        /* \"#utility.yul\":10649:10721   */\n      tag_170\n      jump\t// in\n    tag_305:\n        /* \"#utility.yul\":10286:10728   */\n      swap5\n      swap4\n      pop\n      pop\n      pop\n      pop\n      jump\t// out\n        /* \"#utility.yul\":10734:10928   */\n    tag_136:\n        /* \"#utility.yul\":10774:10778   */\n      0x00\n        /* \"#utility.yul\":10794:10814   */\n      tag_307\n        /* \"#utility.yul\":10812:10813   */\n      dup3\n        /* \"#utility.yul\":10794:10814   */\n      tag_169\n      jump\t// in\n    tag_307:\n        /* \"#utility.yul\":10789:10814   */\n      swap2\n      pop\n        /* \"#utility.yul\":10828:10848   */\n      tag_308\n        /* \"#utility.yul\":10846:10847   */\n      dup4\n        /* \"#utility.yul\":10828:10848   */\n      tag_169\n      jump\t// in\n    tag_308:\n        /* \"#utility.yul\":10823:10848   */\n      swap3\n      pop\n        /* \"#utility.yul\":10872:10873   */\n      dup3\n        /* \"#utility.yul\":10869:10870   */\n      dup3\n        /* \"#utility.yul\":10865:10874   */\n      sub\n        /* \"#utility.yul\":10857:10874   */\n      swap1\n      pop\n        /* \"#utility.yul\":10896:10897   */\n      dup2\n        /* \"#utility.yul\":10890:10894   */\n      dup2\n        /* \"#utility.yul\":10887:10898   */\n      gt\n        /* \"#utility.yul\":10884:10921   */\n      iszero\n      tag_309\n      jumpi\n        /* \"#utility.yul\":10901:10919   */\n      tag_310\n      tag_186\n      jump\t// in\n    tag_310:\n        /* \"#utility.yul\":10884:10921   */\n    tag_309:\n        /* \"#utility.yul\":10734:10928   */\n      swap3\n      swap2\n      pop\n      pop\n      jump\t// out\n        /* \"#utility.yul\":10934:11344   */\n    tag_138:\n        /* \"#utility.yul\":10974:10981   */\n      0x00\n        /* \"#utility.yul\":10997:11017   */\n      tag_312\n        /* \"#utility.yul\":11015:11016   */\n      dup3\n        /* \"#utility.yul\":10997:11017   */\n      tag_169\n      jump\t// in\n    tag_312:\n        /* \"#utility.yul\":10992:11017   */\n      swap2\n      pop\n        /* \"#utility.yul\":11031:11051   */\n      tag_313\n        /* \"#utility.yul\":11049:11050   */\n      dup4\n        /* \"#utility.yul\":11031:11051   */\n      tag_169\n      jump\t// in\n    tag_313:\n        /* \"#utility.yul\":11026:11051   */\n      swap3\n      pop\n        /* \"#utility.yul\":11086:11087   */\n      dup3\n        /* \"#utility.yul\":11083:11084   */\n      dup3\n        /* \"#utility.yul\":11079:11088   */\n      mul\n        /* \"#utility.yul\":11108:11138   */\n      tag_314\n        /* \"#utility.yul\":11126:11137   */\n      dup2\n        /* \"#utility.yul\":11108:11138   */\n      tag_169\n      jump\t// in\n    tag_314:\n        /* \"#utility.yul\":11097:11138   */\n      swap2\n      pop\n        /* \"#utility.yul\":11287:11288   */\n      dup3\n        /* \"#utility.yul\":11278:11285   */\n      dup3\n        /* \"#utility.yul\":11274:11289   */\n      div\n        /* \"#utility.yul\":11271:11272   */\n      dup5\n        /* \"#utility.yul\":11268:11290   */\n      eq\n        /* \"#utility.yul\":11248:11249   */\n      dup4\n        /* \"#utility.yul\":11241:11250   */\n      iszero\n        /* \"#utility.yul\":11221:11304   */\n      or\n        /* \"#utility.yul\":11198:11337   */\n      tag_315\n      jumpi\n        /* \"#utility.yul\":11317:11335   */\n      tag_316\n      tag_186\n      jump\t// in\n    tag_316:\n        /* \"#utility.yul\":11198:11337   */\n    tag_315:\n        /* \"#utility.yul\":10982:11344   */\n      pop\n        /* \"#utility.yul\":10934:11344   */\n      swap3\n      swap2\n      pop\n      pop\n      jump\t// out\n        /* \"#utility.yul\":11350:11516   */\n    tag_195:\n        /* \"#utility.yul\":11490:11508   */\n      0x416c726561647920656e726f6c6c656400000000000000000000000000000000\n        /* \"#utility.yul\":11486:11487   */\n      0x00\n        /* \"#utility.yul\":11478:11484   */\n      dup3\n        /* \"#utility.yul\":11474:11488   */\n      add\n        /* \"#utility.yul\":11467:11509   */\n      mstore\n        /* \"#utility.yul\":11350:11516   */\n      pop\n      jump\t// out\n        /* \"#utility.yul\":11522:11888   */\n    tag_196:\n        /* \"#utility.yul\":11664:11667   */\n      0x00\n        /* \"#utility.yul\":11685:11752   */\n      tag_319\n        /* \"#utility.yul\":11749:11751   */\n      0x10\n        /* \"#utility.yul\":11744:11747   */\n      dup4\n        /* \"#utility.yul\":11685:11752   */\n      tag_181\n      jump\t// in\n    tag_319:\n        /* \"#utility.yul\":11678:11752   */\n      swap2\n      pop\n        /* \"#utility.yul\":11761:11854   */\n      tag_320\n        /* \"#utility.yul\":11850:11853   */\n      dup3\n        /* \"#utility.yul\":11761:11854   */\n      tag_195\n      jump\t// in\n    tag_320:\n        /* \"#utility.yul\":11879:11881   */\n      0x20\n        /* \"#utility.yul\":11874:11877   */\n      dup3\n        /* \"#utility.yul\":11870:11882   */\n      add\n        /* \"#utility.yul\":11863:11882   */\n      swap1\n      pop\n        /* \"#utility.yul\":11522:11888   */\n      swap2\n      swap1\n      pop\n      jump\t// out\n        /* \"#utility.yul\":11894:12313   */\n    tag_145:\n        /* \"#utility.yul\":12060:12064   */\n      0x00\n        /* \"#utility.yul\":12098:12100   */\n      0x20\n        /* \"#utility.yul\":12087:12096   */\n      dup3\n        /* \"#utility.yul\":12083:12101   */\n      add\n        /* \"#utility.yul\":12075:12101   */\n      swap1\n      pop\n        /* \"#utility.yul\":12147:12156   */\n      dup2\n        /* \"#utility.yul\":12141:12145   */\n      dup2\n        /* \"#utility.yul\":12137:12157   */\n      sub\n        /* \"#utility.yul\":12133:12134   */\n      0x00\n        /* \"#utility.yul\":12122:12131   */\n      dup4\n        /* \"#utility.yul\":12118:12135   */\n      add\n        /* \"#utility.yul\":12111:12158   */\n      mstore\n        /* \"#utility.yul\":12175:12306   */\n      tag_322\n        /* \"#utility.yul\":12301:12305   */\n      dup2\n        /* \"#utility.yul\":12175:12306   */\n      tag_196\n      jump\t// in\n    tag_322:\n        /* \"#utility.yul\":12167:12306   */\n      swap1\n      pop\n        /* \"#utility.yul\":11894:12313   */\n      swap2\n      swap1\n      pop\n      jump\t// out\n        /* \"#utility.yul\":12319:12544   */\n    tag_197:\n        /* \"#utility.yul\":12459:12493   */\n      0x4f776e61626c653a206e6577206f776e657220697320746865207a65726f2061\n        /* \"#utility.yul\":12455:12456   */\n      0x00\n        /* \"#utility.yul\":12447:12453   */\n      dup3\n        /* \"#utility.yul\":12443:12457   */\n      add\n        /* \"#utility.yul\":12436:12494   */\n      mstore\n        /* \"#utility.yul\":12528:12536   */\n      0x6464726573730000000000000000000000000000000000000000000000000000\n        /* \"#utility.yul\":12523:12525   */\n      0x20\n        /* \"#utility.yul\":12515:12521   */\n      dup3\n        /* \"#utility.yul\":12511:12526   */\n      add\n        /* \"#utility.yul\":12504:12537   */\n      mstore\n        /* \"#utility.yul\":12319:12544   */\n      pop\n      jump\t// out\n        /* \"#utility.yul\":12550:12916   */\n    tag_198:\n        /* \"#utility.yul\":12692:12695   */\n      0x00\n        /* \"#utility.yul\":12713:12780   */\n      tag_325\n        /* \"#utility.yul\":12777:12779   */\n      0x26\n        /* \"#utility.yul\":12772:12775   */\n      dup4\n        /* \"#utility.yul\":12713:12780   */\n      tag_181\n      jump\t// in\n    tag_325:\n        /* \"#utility.yul\":12706:12780   */\n      swap2\n      pop\n        /* \"#utility.yul\":12789:12882   */\n      tag_326\n        /* \"#utility.yul\":12878:12881   */\n      dup3\n        /* \"#utility.yul\":12789:12882   */\n      tag_197\n      jump\t// in\n    tag_326:\n        /* \"#utility.yul\":12907:12909   */\n      0x40\n        /* \"#utility.yul\":12902:12905   */\n      dup3\n        /* \"#utility.yul\":12898:12910   */\n      add\n        /* \"#utility.yul\":12891:12910   */\n      swap1\n      pop\n        /* \"#utility.yul\":12550:12916   */\n      swap2\n      swap1\n      pop\n      jump\t// out\n        /* \"#utility.yul\":12922:13341   */\n    tag_151:\n        /* \"#utility.yul\":13088:13092   */\n      0x00\n        /* \"#utility.yul\":13126:13128   */\n      0x20\n        /* \"#utility.yul\":13115:13124   */\n      dup3\n        /* \"#utility.yul\":13111:13129   */\n      add\n        /* \"#utility.yul\":13103:13129   */\n      swap1\n      pop\n        /* \"#utility.yul\":13175:13184   */\n      dup2\n        /* \"#utility.yul\":13169:13173   */\n      dup2\n        /* \"#utility.yul\":13165:13185   */\n      sub\n        /* \"#utility.yul\":13161:13162   */\n      0x00\n        /* \"#utility.yul\":13150:13159   */\n      dup4\n        /* \"#utility.yul\":13146:13163   */\n      add\n        /* \"#utility.yul\":13139:13186   */\n      mstore\n        /* \"#utility.yul\":13203:13334   */\n      tag_328\n        /* \"#utility.yul\":13329:13333   */\n      dup2\n        /* \"#utility.yul\":13203:13334   */\n      tag_198\n      jump\t// in\n    tag_328:\n        /* \"#utility.yul\":13195:13334   */\n      swap1\n      pop\n        /* \"#utility.yul\":12922:13341   */\n      swap2\n      swap1\n      pop\n      jump\t// out\n        /* \"#utility.yul\":13347:13529   */\n    tag_199:\n        /* \"#utility.yul\":13487:13521   */\n      0x4f776e61626c653a2063616c6c6572206973206e6f7420746865206f776e6572\n        /* \"#utility.yul\":13483:13484   */\n      0x00\n        /* \"#utility.yul\":13475:13481   */\n      dup3\n        /* \"#utility.yul\":13471:13485   */\n      add\n        /* \"#utility.yul\":13464:13522   */\n      mstore\n        /* \"#utility.yul\":13347:13529   */\n      pop\n      jump\t// out\n        /* \"#utility.yul\":13535:13901   */\n    tag_200:\n        /* \"#utility.yul\":13677:13680   */\n      0x00\n        /* \"#utility.yul\":13698:13765   */\n      tag_331\n        /* \"#utility.yul\":13762:13764   */\n      0x20\n        /* \"#utility.yul\":13757:13760   */\n      dup4\n        /* \"#utility.yul\":13698:13765   */\n      tag_181\n      jump\t// in\n    tag_331:\n        /* \"#utility.yul\":13691:13765   */\n      swap2\n      pop\n        /* \"#utility.yul\":13774:13867   */\n      tag_332\n        /* \"#utility.yul\":13863:13866   */\n      dup3\n        /* \"#utility.yul\":13774:13867   */\n      tag_199\n      jump\t// in\n    tag_332:\n        /* \"#utility.yul\":13892:13894   */\n      0x20\n        /* \"#utility.yul\":13887:13890   */\n      dup3\n        /* \"#utility.yul\":13883:13895   */\n      add\n        /* \"#utility.yul\":13876:13895   */\n      swap1\n      pop\n        /* \"#utility.yul\":13535:13901   */\n      swap2\n      swap1\n      pop\n      jump\t// out\n        /* \"#utility.yul\":13907:14326   */\n    tag_159:\n        /* \"#utility.yul\":14073:14077   */\n      0x00\n        /* \"#utility.yul\":14111:14113   */\n      0x20\n        /* \"#utility.yul\":14100:14109   */\n      dup3\n        /* \"#utility.yul\":14096:14114   */\n      add\n        /* \"#utility.yul\":14088:14114   */\n      swap1\n      pop\n        /* \"#utility.yul\":14160:14169   */\n      dup2\n        /* \"#utility.yul\":14154:14158   */\n      dup2\n        /* \"#utility.yul\":14150:14170   */\n      sub\n        /* \"#utility.yul\":14146:14147   */\n      0x00\n        /* \"#utility.yul\":14135:14144   */\n      dup4\n        /* \"#utility.yul\":14131:14148   */\n      add\n        /* \"#utility.yul\":14124:14171   */\n      mstore\n        /* \"#utility.yul\":14188:14319   */\n      tag_334\n        /* \"#utility.yul\":14314:14318   */\n      dup2\n        /* \"#utility.yul\":14188:14319   */\n      tag_200\n      jump\t// in\n    tag_334:\n        /* \"#utility.yul\":14180:14319   */\n      swap1\n      pop\n        /* \"#utility.yul\":13907:14326   */\n      swap2\n      swap1\n      pop\n      jump\t// out\n\n    auxdata: 0xa2646970667358221220d46346498b7bfd2f7c513fd6693aa70f39dae7f0de8a478067c9c7ffb760facc64736f6c63430008120033\n}\n",
				"bytecode": {
					"linkReferences": {},
					"object": "60806040523480156200001157600080fd5b506040516200181b3803806200181b833981810160405281019062000037919062000220565b620000576200004b620000af60201b60201c565b620000b760201b60201c565b82600160006101000a81548173ffffffffffffffffffffffffffffffffffffffff021916908373ffffffffffffffffffffffffffffffffffffffff16021790555081600281905550806003819055505050506200027c565b600033905090565b60008060009054906101000a900473ffffffffffffffffffffffffffffffffffffffff169050816000806101000a81548173ffffffffffffffffffffffffffffffffffffffff021916908373ffffffffffffffffffffffffffffffffffffffff1602179055508173ffffffffffffffffffffffffffffffffffffffff168173ffffffffffffffffffffffffffffffffffffffff167f8be0079c531659141344cd1fd0a4f28419497f9722a3daafe3b4186f6b6457e060405160405180910390a35050565b600080fd5b600073ffffffffffffffffffffffffffffffffffffffff82169050919050565b6000620001ad8262000180565b9050919050565b620001bf81620001a0565b8114620001cb57600080fd5b50565b600081519050620001df81620001b4565b92915050565b6000819050919050565b620001fa81620001e5565b81146200020657600080fd5b50565b6000815190506200021a81620001ef565b92915050565b6000806000606084860312156200023c576200023b6200017b565b5b60006200024c86828701620001ce565b93505060206200025f8682870162000209565b9250506040620002728682870162000209565b9150509250925092565b61158f806200028c6000396000f3fe608060405234801561001057600080fd5b50600436106101005760003560e01c806394518fd811610097578063e65f2a7e11610066578063e65f2a7e14610273578063f2fde38b1461027d578063f53fd4ae14610299578063f7c618c1146102c957610100565b806394518fd8146101db578063a694fc3a1461020b578063cb43b2dd14610227578063d82e39621461024357610100565b8063715018a6116100d3578063715018a6146101775780638005a7de146101815780638da5cb5b1461019f5780638f10369a146101bd57610100565b806316934fc4146101055780632def6620146101355780634004c8e71461013f5780635b1d70861461015b575b600080fd5b61011f600480360381019061011a9190610e9c565b6102e7565b60405161012c9190610ee2565b60405180910390f35b61013d6102ff565b005b61015960048036038101906101549190610f29565b610621565b005b61017560048036038101906101709190610f29565b610633565b005b61017f610645565b005b610189610659565b6040516101969190610ee2565b60405180910390f35b6101a761065f565b6040516101b49190610f65565b60405180910390f35b6101c5610688565b6040516101d29190610ee2565b60405180910390f35b6101f560048036038101906101f09190610e9c565b61068e565b6040516102029190610f9b565b60405180910390f35b61022560048036038101906102209190610f29565b6106ae565b005b610241600480360381019061023c9190610f29565b61092d565b005b61025d60048036038101906102589190610e9c565b6109e0565b60405161026a9190610ee2565b60405180910390f35b61027b610b47565b005b61029760048036038101906102929190610e9c565b610c2e565b005b6102b360048036038101906102ae9190610e9c565b610cb1565b6040516102c09190610ee2565b60405180910390f35b6102d1610cc9565b6040516102de9190611015565b60405180910390f35b60046020528060005260406000206000915090505481565b600660003373ffffffffffffffffffffffffffffffffffffffff1673ffffffffffffffffffffffffffffffffffffffff16815260200190815260200160002060009054906101000a900460ff1661038b576040517f08c379a00000000000000000000000000000000000000000000000000000000081526004016103829061108d565b60405180910390fd5b6000600460003373ffffffffffffffffffffffffffffffffffffffff1673ffffffffffffffffffffffffffffffffffffffff168152602001908152602001600020541161040d576040517f08c379a0000000000000000000000000000000000000000000000000000000008152600401610404906110f9565b60405180910390fd5b600354600560003373ffffffffffffffffffffffffffffffffffffffff1673ffffffffffffffffffffffffffffffffffffffff1681526020019081526020016000205461045a9190611148565b42101561049c576040517f08c379a0000000000000000000000000000000000000000000000000000000008152600401610493906111c8565b60405180910390fd5b60006104a7336109e0565b9050600160009054906101000a900473ffffffffffffffffffffffffffffffffffffffff1673ffffffffffffffffffffffffffffffffffffffff1663a9059cbb3383600460003373ffffffffffffffffffffffffffffffffffffffff1673ffffffffffffffffffffffffffffffffffffffff168152602001908152602001600020546105339190611148565b6040518363ffffffff1660e01b81526004016105509291906111e8565b6020604051808303816000875af115801561056f573d6000803e3d6000fd5b505050506040513d601f19601f82011682018060405250810190610593919061123d565b506000600460003373ffffffffffffffffffffffffffffffffffffffff1673ffffffffffffffffffffffffffffffffffffffff168152602001908152602001600020819055506000600560003373ffffffffffffffffffffffffffffffffffffffff1673ffffffffffffffffffffffffffffffffffffffff1681526020019081526020016000208190555050565b610629610cef565b8060028190555050565b61063b610cef565b8060038190555050565b61064d610cef565b6106576000610d6d565b565b60035481565b60008060009054906101000a900473ffffffffffffffffffffffffffffffffffffffff16905090565b60025481565b60066020528060005260406000206000915054906101000a900460ff1681565b600660003373ffffffffffffffffffffffffffffffffffffffff1673ffffffffffffffffffffffffffffffffffffffff16815260200190815260200160002060009054906101000a900460ff1661073a576040517f08c379a00000000000000000000000000000000000000000000000000000000081526004016107319061108d565b60405180910390fd5b6000811161077d576040517f08c379a0000000000000000000000000000000000000000000000000000000008152600401610774906112b6565b60405180910390fd5b6000600460003373ffffffffffffffffffffffffffffffffffffffff1673ffffffffffffffffffffffffffffffffffffffff16815260200190815260200160002054146107ff576040517f08c379a00000000000000000000000000000000000000000000000000000000081526004016107f690611322565b60405180910390fd5b600160009054906101000a900473ffffffffffffffffffffffffffffffffffffffff1673ffffffffffffffffffffffffffffffffffffffff166323b872dd3330846040518463ffffffff1660e01b815260040161085e93929190611342565b6020604051808303816000875af115801561087d573d6000803e3d6000fd5b505050506040513d601f19601f820116820180604052508101906108a1919061123d565b5080600460003373ffffffffffffffffffffffffffffffffffffffff1673ffffffffffffffffffffffffffffffffffffffff1681526020019081526020016000208190555042600560003373ffffffffffffffffffffffffffffffffffffffff1673ffffffffffffffffffffffffffffffffffffffff1681526020019081526020016000208190555050565b610935610cef565b600160009054906101000a900473ffffffffffffffffffffffffffffffffffffffff1673ffffffffffffffffffffffffffffffffffffffff1663a9059cbb61097b61065f565b836040518363ffffffff1660e01b81526004016109999291906111e8565b6020604051808303816000875af11580156109b8573d6000803e3d6000fd5b505050506040513d601f19601f820116820180604052508101906109dc919061123d565b5050565b6000600354600560008473ffffffffffffffffffffffffffffffffffffffff1673ffffffffffffffffffffffffffffffffffffffff16815260200190815260200160002054610a2f9190611148565b421015610ae5576000600560008473ffffffffffffffffffffffffffffffffffffffff1673ffffffffffffffffffffffffffffffffffffffff1681526020019081526020016000205442610a839190611379565b9050600460008473ffffffffffffffffffffffffffffffffffffffff1673ffffffffffffffffffffffffffffffffffffffff1681526020019081526020016000205460025482610ad391906113ad565b610add91906113ad565b915050610b42565b600460008373ffffffffffffffffffffffffffffffffffffffff1673ffffffffffffffffffffffffffffffffffffffff16815260200190815260200160002054600254600354610b3591906113ad565b610b3f91906113ad565b90505b919050565b600660003373ffffffffffffffffffffffffffffffffffffffff1673ffffffffffffffffffffffffffffffffffffffff16815260200190815260200160002060009054906101000a900460ff1615610bd4576040517f08c379a0000000000000000000000000000000000000000000000000000000008152600401610bcb9061143b565b60405180910390fd5b6001600660003373ffffffffffffffffffffffffffffffffffffffff1673ffffffffffffffffffffffffffffffffffffffff16815260200190815260200160002060006101000a81548160ff021916908315150217905550565b610c36610cef565b600073ffffffffffffffffffffffffffffffffffffffff168173ffffffffffffffffffffffffffffffffffffffff1603610ca5576040517f08c379a0000000000000000000000000000000000000000000000000000000008152600401610c9c906114cd565b60405180910390fd5b610cae81610d6d565b50565b60056020528060005260406000206000915090505481565b600160009054906101000a900473ffffffffffffffffffffffffffffffffffffffff1681565b610cf7610e31565b73ffffffffffffffffffffffffffffffffffffffff16610d1561065f565b73ffffffffffffffffffffffffffffffffffffffff1614610d6b576040517f08c379a0000000000000000000000000000000000000000000000000000000008152600401610d6290611539565b60405180910390fd5b565b60008060009054906101000a900473ffffffffffffffffffffffffffffffffffffffff169050816000806101000a81548173ffffffffffffffffffffffffffffffffffffffff021916908373ffffffffffffffffffffffffffffffffffffffff1602179055508173ffffffffffffffffffffffffffffffffffffffff168173ffffffffffffffffffffffffffffffffffffffff167f8be0079c531659141344cd1fd0a4f28419497f9722a3daafe3b4186f6b6457e060405160405180910390a35050565b600033905090565b600080fd5b600073ffffffffffffffffffffffffffffffffffffffff82169050919050565b6000610e6982610e3e565b9050919050565b610e7981610e5e565b8114610e8457600080fd5b50565b600081359050610e9681610e70565b92915050565b600060208284031215610eb257610eb1610e39565b5b6000610ec084828501610e87565b91505092915050565b6000819050919050565b610edc81610ec9565b82525050565b6000602082019050610ef76000830184610ed3565b92915050565b610f0681610ec9565b8114610f1157600080fd5b50565b600081359050610f2381610efd565b92915050565b600060208284031215610f3f57610f3e610e39565b5b6000610f4d84828501610f14565b91505092915050565b610f5f81610e5e565b82525050565b6000602082019050610f7a6000830184610f56565b92915050565b60008115159050919050565b610f9581610f80565b82525050565b6000602082019050610fb06000830184610f8c565b92915050565b6000819050919050565b6000610fdb610fd6610fd184610e3e565b610fb6565b610e3e565b9050919050565b6000610fed82610fc0565b9050919050565b6000610fff82610fe2565b9050919050565b61100f81610ff4565b82525050565b600060208201905061102a6000830184611006565b92915050565b600082825260208201905092915050565b7f4e6f7420656e726f6c6c65640000000000000000000000000000000000000000600082015250565b6000611077600c83611030565b915061108282611041565b602082019050919050565b600060208201905081810360008301526110a68161106a565b9050919050565b7f4e6f207374616b656420616d6f756e7400000000000000000000000000000000600082015250565b60006110e3601083611030565b91506110ee826110ad565b602082019050919050565b60006020820190508181036000830152611112816110d6565b9050919050565b7f4e487b7100000000000000000000000000000000000000000000000000000000600052601160045260246000fd5b600061115382610ec9565b915061115e83610ec9565b925082820190508082111561117657611175611119565b5b92915050565b7f5374616b696e67206475726174696f6e206e6f74207061737365640000000000600082015250565b60006111b2601b83611030565b91506111bd8261117c565b602082019050919050565b600060208201905081810360008301526111e1816111a5565b9050919050565b60006040820190506111fd6000830185610f56565b61120a6020830184610ed3565b9392505050565b61121a81610f80565b811461122557600080fd5b50565b60008151905061123781611211565b92915050565b60006020828403121561125357611252610e39565b5b600061126184828501611228565b91505092915050565b7f416d6f756e74206d7573742062652067726561746572207468616e2030000000600082015250565b60006112a0601d83611030565b91506112ab8261126a565b602082019050919050565b600060208201905081810360008301526112cf81611293565b9050919050565b7f416c7265616479207374616b6564000000000000000000000000000000000000600082015250565b600061130c600e83611030565b9150611317826112d6565b602082019050919050565b6000602082019050818103600083015261133b816112ff565b9050919050565b60006060820190506113576000830186610f56565b6113646020830185610f56565b6113716040830184610ed3565b949350505050565b600061138482610ec9565b915061138f83610ec9565b92508282039050818111156113a7576113a6611119565b5b92915050565b60006113b882610ec9565b91506113c383610ec9565b92508282026113d181610ec9565b915082820484148315176113e8576113e7611119565b5b5092915050565b7f416c726561647920656e726f6c6c656400000000000000000000000000000000600082015250565b6000611425601083611030565b9150611430826113ef565b602082019050919050565b6000602082019050818103600083015261145481611418565b9050919050565b7f4f776e61626c653a206e6577206f776e657220697320746865207a65726f206160008201527f6464726573730000000000000000000000000000000000000000000000000000602082015250565b60006114b7602683611030565b91506114c28261145b565b604082019050919050565b600060208201905081810360008301526114e6816114aa565b9050919050565b7f4f776e61626c653a2063616c6c6572206973206e6f7420746865206f776e6572600082015250565b6000611523602083611030565b915061152e826114ed565b602082019050919050565b6000602082019050818103600083015261155281611516565b905091905056fea2646970667358221220d46346498b7bfd2f7c513fd6693aa70f39dae7f0de8a478067c9c7ffb760facc64736f6c63430008120033",
					"opcodes": "PUSH1 0x80 PUSH1 0x40 MSTORE CALLVALUE DUP1 ISZERO PUSH3 0x11 JUMPI PUSH1 0x0 DUP1 REVERT JUMPDEST POP PUSH1 0x40 MLOAD PUSH3 0x181B CODESIZE SUB DUP1 PUSH3 0x181B DUP4 CODECOPY DUP2 DUP2 ADD PUSH1 0x40 MSTORE DUP2 ADD SWAP1 PUSH3 0x37 SWAP2 SWAP1 PUSH3 0x220 JUMP JUMPDEST PUSH3 0x57 PUSH3 0x4B PUSH3 0xAF PUSH1 0x20 SHL PUSH1 0x20 SHR JUMP JUMPDEST PUSH3 0xB7 PUSH1 0x20 SHL PUSH1 0x20 SHR JUMP JUMPDEST DUP3 PUSH1 0x1 PUSH1 0x0 PUSH2 0x100 EXP DUP2 SLOAD DUP2 PUSH20 0xFFFFFFFFFFFFFFFFFFFFFFFFFFFFFFFFFFFFFFFF MUL NOT AND SWAP1 DUP4 PUSH20 0xFFFFFFFFFFFFFFFFFFFFFFFFFFFFFFFFFFFFFFFF AND MUL OR SWAP1 SSTORE POP DUP2 PUSH1 0x2 DUP2 SWAP1 SSTORE POP DUP1 PUSH1 0x3 DUP2 SWAP1 SSTORE POP POP POP POP PUSH3 0x27C JUMP JUMPDEST PUSH1 0x0 CALLER SWAP1 POP SWAP1 JUMP JUMPDEST PUSH1 0x0 DUP1 PUSH1 0x0 SWAP1 SLOAD SWAP1 PUSH2 0x100 EXP SWAP1 DIV PUSH20 0xFFFFFFFFFFFFFFFFFFFFFFFFFFFFFFFFFFFFFFFF AND SWAP1 POP DUP2 PUSH1 0x0 DUP1 PUSH2 0x100 EXP DUP2 SLOAD DUP2 PUSH20 0xFFFFFFFFFFFFFFFFFFFFFFFFFFFFFFFFFFFFFFFF MUL NOT AND SWAP1 DUP4 PUSH20 0xFFFFFFFFFFFFFFFFFFFFFFFFFFFFFFFFFFFFFFFF AND MUL OR SWAP1 SSTORE POP DUP2 PUSH20 0xFFFFFFFFFFFFFFFFFFFFFFFFFFFFFFFFFFFFFFFF AND DUP2 PUSH20 0xFFFFFFFFFFFFFFFFFFFFFFFFFFFFFFFFFFFFFFFF AND PUSH32 0x8BE0079C531659141344CD1FD0A4F28419497F9722A3DAAFE3B4186F6B6457E0 PUSH1 0x40 MLOAD PUSH1 0x40 MLOAD DUP1 SWAP2 SUB SWAP1 LOG3 POP POP JUMP JUMPDEST PUSH1 0x0 DUP1 REVERT JUMPDEST PUSH1 0x0 PUSH20 0xFFFFFFFFFFFFFFFFFFFFFFFFFFFFFFFFFFFFFFFF DUP3 AND SWAP1 POP SWAP2 SWAP1 POP JUMP JUMPDEST PUSH1 0x0 PUSH3 0x1AD DUP3 PUSH3 0x180 JUMP JUMPDEST SWAP1 POP SWAP2 SWAP1 POP JUMP JUMPDEST PUSH3 0x1BF DUP2 PUSH3 0x1A0 JUMP JUMPDEST DUP2 EQ PUSH3 0x1CB JUMPI PUSH1 0x0 DUP1 REVERT JUMPDEST POP JUMP JUMPDEST PUSH1 0x0 DUP2 MLOAD SWAP1 POP PUSH3 0x1DF DUP2 PUSH3 0x1B4 JUMP JUMPDEST SWAP3 SWAP2 POP POP JUMP JUMPDEST PUSH1 0x0 DUP2 SWAP1 POP SWAP2 SWAP1 POP JUMP JUMPDEST PUSH3 0x1FA DUP2 PUSH3 0x1E5 JUMP JUMPDEST DUP2 EQ PUSH3 0x206 JUMPI PUSH1 0x0 DUP1 REVERT JUMPDEST POP JUMP JUMPDEST PUSH1 0x0 DUP2 MLOAD SWAP1 POP PUSH3 0x21A DUP2 PUSH3 0x1EF JUMP JUMPDEST SWAP3 SWAP2 POP POP JUMP JUMPDEST PUSH1 0x0 DUP1 PUSH1 0x0 PUSH1 0x60 DUP5 DUP7 SUB SLT ISZERO PUSH3 0x23C JUMPI PUSH3 0x23B PUSH3 0x17B JUMP JUMPDEST JUMPDEST PUSH1 0x0 PUSH3 0x24C DUP7 DUP3 DUP8 ADD PUSH3 0x1CE JUMP JUMPDEST SWAP4 POP POP PUSH1 0x20 PUSH3 0x25F DUP7 DUP3 DUP8 ADD PUSH3 0x209 JUMP JUMPDEST SWAP3 POP POP PUSH1 0x40 PUSH3 0x272 DUP7 DUP3 DUP8 ADD PUSH3 0x209 JUMP JUMPDEST SWAP2 POP POP SWAP3 POP SWAP3 POP SWAP3 JUMP JUMPDEST PUSH2 0x158F DUP1 PUSH3 0x28C PUSH1 0x0 CODECOPY PUSH1 0x0 RETURN INVALID PUSH1 0x80 PUSH1 0x40 MSTORE CALLVALUE DUP1 ISZERO PUSH2 0x10 JUMPI PUSH1 0x0 DUP1 REVERT JUMPDEST POP PUSH1 0x4 CALLDATASIZE LT PUSH2 0x100 JUMPI PUSH1 0x0 CALLDATALOAD PUSH1 0xE0 SHR DUP1 PUSH4 0x94518FD8 GT PUSH2 0x97 JUMPI DUP1 PUSH4 0xE65F2A7E GT PUSH2 0x66 JUMPI DUP1 PUSH4 0xE65F2A7E EQ PUSH2 0x273 JUMPI DUP1 PUSH4 0xF2FDE38B EQ PUSH2 0x27D JUMPI DUP1 PUSH4 0xF53FD4AE EQ PUSH2 0x299 JUMPI DUP1 PUSH4 0xF7C618C1 EQ PUSH2 0x2C9 JUMPI PUSH2 0x100 JUMP JUMPDEST DUP1 PUSH4 0x94518FD8 EQ PUSH2 0x1DB JUMPI DUP1 PUSH4 0xA694FC3A EQ PUSH2 0x20B JUMPI DUP1 PUSH4 0xCB43B2DD EQ PUSH2 0x227 JUMPI DUP1 PUSH4 0xD82E3962 EQ PUSH2 0x243 JUMPI PUSH2 0x100 JUMP JUMPDEST DUP1 PUSH4 0x715018A6 GT PUSH2 0xD3 JUMPI DUP1 PUSH4 0x715018A6 EQ PUSH2 0x177 JUMPI DUP1 PUSH4 0x8005A7DE EQ PUSH2 0x181 JUMPI DUP1 PUSH4 0x8DA5CB5B EQ PUSH2 0x19F JUMPI DUP1 PUSH4 0x8F10369A EQ PUSH2 0x1BD JUMPI PUSH2 0x100 JUMP JUMPDEST DUP1 PUSH4 0x16934FC4 EQ PUSH2 0x105 JUMPI DUP1 PUSH4 0x2DEF6620 EQ PUSH2 0x135 JUMPI DUP1 PUSH4 0x4004C8E7 EQ PUSH2 0x13F JUMPI DUP1 PUSH4 0x5B1D7086 EQ PUSH2 0x15B JUMPI JUMPDEST PUSH1 0x0 DUP1 REVERT JUMPDEST PUSH2 0x11F PUSH1 0x4 DUP1 CALLDATASIZE SUB DUP2 ADD SWAP1 PUSH2 0x11A SWAP2 SWAP1 PUSH2 0xE9C JUMP JUMPDEST PUSH2 0x2E7 JUMP JUMPDEST PUSH1 0x40 MLOAD PUSH2 0x12C SWAP2 SWAP1 PUSH2 0xEE2 JUMP JUMPDEST PUSH1 0x40 MLOAD DUP1 SWAP2 SUB SWAP1 RETURN JUMPDEST PUSH2 0x13D PUSH2 0x2FF JUMP JUMPDEST STOP JUMPDEST PUSH2 0x159 PUSH1 0x4 DUP1 CALLDATASIZE SUB DUP2 ADD SWAP1 PUSH2 0x154 SWAP2 SWAP1 PUSH2 0xF29 JUMP JUMPDEST PUSH2 0x621 JUMP JUMPDEST STOP JUMPDEST PUSH2 0x175 PUSH1 0x4 DUP1 CALLDATASIZE SUB DUP2 ADD SWAP1 PUSH2 0x170 SWAP2 SWAP1 PUSH2 0xF29 JUMP JUMPDEST PUSH2 0x633 JUMP JUMPDEST STOP JUMPDEST PUSH2 0x17F PUSH2 0x645 JUMP JUMPDEST STOP JUMPDEST PUSH2 0x189 PUSH2 0x659 JUMP JUMPDEST PUSH1 0x40 MLOAD PUSH2 0x196 SWAP2 SWAP1 PUSH2 0xEE2 JUMP JUMPDEST PUSH1 0x40 MLOAD DUP1 SWAP2 SUB SWAP1 RETURN JUMPDEST PUSH2 0x1A7 PUSH2 0x65F JUMP JUMPDEST PUSH1 0x40 MLOAD PUSH2 0x1B4 SWAP2 SWAP1 PUSH2 0xF65 JUMP JUMPDEST PUSH1 0x40 MLOAD DUP1 SWAP2 SUB SWAP1 RETURN JUMPDEST PUSH2 0x1C5 PUSH2 0x688 JUMP JUMPDEST PUSH1 0x40 MLOAD PUSH2 0x1D2 SWAP2 SWAP1 PUSH2 0xEE2 JUMP JUMPDEST PUSH1 0x40 MLOAD DUP1 SWAP2 SUB SWAP1 RETURN JUMPDEST PUSH2 0x1F5 PUSH1 0x4 DUP1 CALLDATASIZE SUB DUP2 ADD SWAP1 PUSH2 0x1F0 SWAP2 SWAP1 PUSH2 0xE9C JUMP JUMPDEST PUSH2 0x68E JUMP JUMPDEST PUSH1 0x40 MLOAD PUSH2 0x202 SWAP2 SWAP1 PUSH2 0xF9B JUMP JUMPDEST PUSH1 0x40 MLOAD DUP1 SWAP2 SUB SWAP1 RETURN JUMPDEST PUSH2 0x225 PUSH1 0x4 DUP1 CALLDATASIZE SUB DUP2 ADD SWAP1 PUSH2 0x220 SWAP2 SWAP1 PUSH2 0xF29 JUMP JUMPDEST PUSH2 0x6AE JUMP JUMPDEST STOP JUMPDEST PUSH2 0x241 PUSH1 0x4 DUP1 CALLDATASIZE SUB DUP2 ADD SWAP1 PUSH2 0x23C SWAP2 SWAP1 PUSH2 0xF29 JUMP JUMPDEST PUSH2 0x92D JUMP JUMPDEST STOP JUMPDEST PUSH2 0x25D PUSH1 0x4 DUP1 CALLDATASIZE SUB DUP2 ADD SWAP1 PUSH2 0x258 SWAP2 SWAP1 PUSH2 0xE9C JUMP JUMPDEST PUSH2 0x9E0 JUMP JUMPDEST PUSH1 0x40 MLOAD PUSH2 0x26A SWAP2 SWAP1 PUSH2 0xEE2 JUMP JUMPDEST PUSH1 0x40 MLOAD DUP1 SWAP2 SUB SWAP1 RETURN JUMPDEST PUSH2 0x27B PUSH2 0xB47 JUMP JUMPDEST STOP JUMPDEST PUSH2 0x297 PUSH1 0x4 DUP1 CALLDATASIZE SUB DUP2 ADD SWAP1 PUSH2 0x292 SWAP2 SWAP1 PUSH2 0xE9C JUMP JUMPDEST PUSH2 0xC2E JUMP JUMPDEST STOP JUMPDEST PUSH2 0x2B3 PUSH1 0x4 DUP1 CALLDATASIZE SUB DUP2 ADD SWAP1 PUSH2 0x2AE SWAP2 SWAP1 PUSH2 0xE9C JUMP JUMPDEST PUSH2 0xCB1 JUMP JUMPDEST PUSH1 0x40 MLOAD PUSH2 0x2C0 SWAP2 SWAP1 PUSH2 0xEE2 JUMP JUMPDEST PUSH1 0x40 MLOAD DUP1 SWAP2 SUB SWAP1 RETURN JUMPDEST PUSH2 0x2D1 PUSH2 0xCC9 JUMP JUMPDEST PUSH1 0x40 MLOAD PUSH2 0x2DE SWAP2 SWAP1 PUSH2 0x1015 JUMP JUMPDEST PUSH1 0x40 MLOAD DUP1 SWAP2 SUB SWAP1 RETURN JUMPDEST PUSH1 0x4 PUSH1 0x20 MSTORE DUP1 PUSH1 0x0 MSTORE PUSH1 0x40 PUSH1 0x0 KECCAK256 PUSH1 0x0 SWAP2 POP SWAP1 POP SLOAD DUP2 JUMP JUMPDEST PUSH1 0x6 PUSH1 0x0 CALLER PUSH20 0xFFFFFFFFFFFFFFFFFFFFFFFFFFFFFFFFFFFFFFFF AND PUSH20 0xFFFFFFFFFFFFFFFFFFFFFFFFFFFFFFFFFFFFFFFF AND DUP2 MSTORE PUSH1 0x20 ADD SWAP1 DUP2 MSTORE PUSH1 0x20 ADD PUSH1 0x0 KECCAK256 PUSH1 0x0 SWAP1 SLOAD SWAP1 PUSH2 0x100 EXP SWAP1 DIV PUSH1 0xFF AND PUSH2 0x38B JUMPI PUSH1 0x40 MLOAD PUSH32 0x8C379A000000000000000000000000000000000000000000000000000000000 DUP2 MSTORE PUSH1 0x4 ADD PUSH2 0x382 SWAP1 PUSH2 0x108D JUMP JUMPDEST PUSH1 0x40 MLOAD DUP1 SWAP2 SUB SWAP1 REVERT JUMPDEST PUSH1 0x0 PUSH1 0x4 PUSH1 0x0 CALLER PUSH20 0xFFFFFFFFFFFFFFFFFFFFFFFFFFFFFFFFFFFFFFFF AND PUSH20 0xFFFFFFFFFFFFFFFFFFFFFFFFFFFFFFFFFFFFFFFF AND DUP2 MSTORE PUSH1 0x20 ADD SWAP1 DUP2 MSTORE PUSH1 0x20 ADD PUSH1 0x0 KECCAK256 SLOAD GT PUSH2 0x40D JUMPI PUSH1 0x40 MLOAD PUSH32 0x8C379A000000000000000000000000000000000000000000000000000000000 DUP2 MSTORE PUSH1 0x4 ADD PUSH2 0x404 SWAP1 PUSH2 0x10F9 JUMP JUMPDEST PUSH1 0x40 MLOAD DUP1 SWAP2 SUB SWAP1 REVERT JUMPDEST PUSH1 0x3 SLOAD PUSH1 0x5 PUSH1 0x0 CALLER PUSH20 0xFFFFFFFFFFFFFFFFFFFFFFFFFFFFFFFFFFFFFFFF AND PUSH20 0xFFFFFFFFFFFFFFFFFFFFFFFFFFFFFFFFFFFFFFFF AND DUP2 MSTORE PUSH1 0x20 ADD SWAP1 DUP2 MSTORE PUSH1 0x20 ADD PUSH1 0x0 KECCAK256 SLOAD PUSH2 0x45A SWAP2 SWAP1 PUSH2 0x1148 JUMP JUMPDEST TIMESTAMP LT ISZERO PUSH2 0x49C JUMPI PUSH1 0x40 MLOAD PUSH32 0x8C379A000000000000000000000000000000000000000000000000000000000 DUP2 MSTORE PUSH1 0x4 ADD PUSH2 0x493 SWAP1 PUSH2 0x11C8 JUMP JUMPDEST PUSH1 0x40 MLOAD DUP1 SWAP2 SUB SWAP1 REVERT JUMPDEST PUSH1 0x0 PUSH2 0x4A7 CALLER PUSH2 0x9E0 JUMP JUMPDEST SWAP1 POP PUSH1 0x1 PUSH1 0x0 SWAP1 SLOAD SWAP1 PUSH2 0x100 EXP SWAP1 DIV PUSH20 0xFFFFFFFFFFFFFFFFFFFFFFFFFFFFFFFFFFFFFFFF AND PUSH20 0xFFFFFFFFFFFFFFFFFFFFFFFFFFFFFFFFFFFFFFFF AND PUSH4 0xA9059CBB CALLER DUP4 PUSH1 0x4 PUSH1 0x0 CALLER PUSH20 0xFFFFFFFFFFFFFFFFFFFFFFFFFFFFFFFFFFFFFFFF AND PUSH20 0xFFFFFFFFFFFFFFFFFFFFFFFFFFFFFFFFFFFFFFFF AND DUP2 MSTORE PUSH1 0x20 ADD SWAP1 DUP2 MSTORE PUSH1 0x20 ADD PUSH1 0x0 KECCAK256 SLOAD PUSH2 0x533 SWAP2 SWAP1 PUSH2 0x1148 JUMP JUMPDEST PUSH1 0x40 MLOAD DUP4 PUSH4 0xFFFFFFFF AND PUSH1 0xE0 SHL DUP2 MSTORE PUSH1 0x4 ADD PUSH2 0x550 SWAP3 SWAP2 SWAP1 PUSH2 0x11E8 JUMP JUMPDEST PUSH1 0x20 PUSH1 0x40 MLOAD DUP1 DUP4 SUB DUP2 PUSH1 0x0 DUP8 GAS CALL ISZERO DUP1 ISZERO PUSH2 0x56F JUMPI RETURNDATASIZE PUSH1 0x0 DUP1 RETURNDATACOPY RETURNDATASIZE PUSH1 0x0 REVERT JUMPDEST POP POP POP POP PUSH1 0x40 MLOAD RETURNDATASIZE PUSH1 0x1F NOT PUSH1 0x1F DUP3 ADD AND DUP3 ADD DUP1 PUSH1 0x40 MSTORE POP DUP2 ADD SWAP1 PUSH2 0x593 SWAP2 SWAP1 PUSH2 0x123D JUMP JUMPDEST POP PUSH1 0x0 PUSH1 0x4 PUSH1 0x0 CALLER PUSH20 0xFFFFFFFFFFFFFFFFFFFFFFFFFFFFFFFFFFFFFFFF AND PUSH20 0xFFFFFFFFFFFFFFFFFFFFFFFFFFFFFFFFFFFFFFFF AND DUP2 MSTORE PUSH1 0x20 ADD SWAP1 DUP2 MSTORE PUSH1 0x20 ADD PUSH1 0x0 KECCAK256 DUP2 SWAP1 SSTORE POP PUSH1 0x0 PUSH1 0x5 PUSH1 0x0 CALLER PUSH20 0xFFFFFFFFFFFFFFFFFFFFFFFFFFFFFFFFFFFFFFFF AND PUSH20 0xFFFFFFFFFFFFFFFFFFFFFFFFFFFFFFFFFFFFFFFF AND DUP2 MSTORE PUSH1 0x20 ADD SWAP1 DUP2 MSTORE PUSH1 0x20 ADD PUSH1 0x0 KECCAK256 DUP2 SWAP1 SSTORE POP POP JUMP JUMPDEST PUSH2 0x629 PUSH2 0xCEF JUMP JUMPDEST DUP1 PUSH1 0x2 DUP2 SWAP1 SSTORE POP POP JUMP JUMPDEST PUSH2 0x63B PUSH2 0xCEF JUMP JUMPDEST DUP1 PUSH1 0x3 DUP2 SWAP1 SSTORE POP POP JUMP JUMPDEST PUSH2 0x64D PUSH2 0xCEF JUMP JUMPDEST PUSH2 0x657 PUSH1 0x0 PUSH2 0xD6D JUMP JUMPDEST JUMP JUMPDEST PUSH1 0x3 SLOAD DUP2 JUMP JUMPDEST PUSH1 0x0 DUP1 PUSH1 0x0 SWAP1 SLOAD SWAP1 PUSH2 0x100 EXP SWAP1 DIV PUSH20 0xFFFFFFFFFFFFFFFFFFFFFFFFFFFFFFFFFFFFFFFF AND SWAP1 POP SWAP1 JUMP JUMPDEST PUSH1 0x2 SLOAD DUP2 JUMP JUMPDEST PUSH1 0x6 PUSH1 0x20 MSTORE DUP1 PUSH1 0x0 MSTORE PUSH1 0x40 PUSH1 0x0 KECCAK256 PUSH1 0x0 SWAP2 POP SLOAD SWAP1 PUSH2 0x100 EXP SWAP1 DIV PUSH1 0xFF AND DUP2 JUMP JUMPDEST PUSH1 0x6 PUSH1 0x0 CALLER PUSH20 0xFFFFFFFFFFFFFFFFFFFFFFFFFFFFFFFFFFFFFFFF AND PUSH20 0xFFFFFFFFFFFFFFFFFFFFFFFFFFFFFFFFFFFFFFFF AND DUP2 MSTORE PUSH1 0x20 ADD SWAP1 DUP2 MSTORE PUSH1 0x20 ADD PUSH1 0x0 KECCAK256 PUSH1 0x0 SWAP1 SLOAD SWAP1 PUSH2 0x100 EXP SWAP1 DIV PUSH1 0xFF AND PUSH2 0x73A JUMPI PUSH1 0x40 MLOAD PUSH32 0x8C379A000000000000000000000000000000000000000000000000000000000 DUP2 MSTORE PUSH1 0x4 ADD PUSH2 0x731 SWAP1 PUSH2 0x108D JUMP JUMPDEST PUSH1 0x40 MLOAD DUP1 SWAP2 SUB SWAP1 REVERT JUMPDEST PUSH1 0x0 DUP2 GT PUSH2 0x77D JUMPI PUSH1 0x40 MLOAD PUSH32 0x8C379A000000000000000000000000000000000000000000000000000000000 DUP2 MSTORE PUSH1 0x4 ADD PUSH2 0x774 SWAP1 PUSH2 0x12B6 JUMP JUMPDEST PUSH1 0x40 MLOAD DUP1 SWAP2 SUB SWAP1 REVERT JUMPDEST PUSH1 0x0 PUSH1 0x4 PUSH1 0x0 CALLER PUSH20 0xFFFFFFFFFFFFFFFFFFFFFFFFFFFFFFFFFFFFFFFF AND PUSH20 0xFFFFFFFFFFFFFFFFFFFFFFFFFFFFFFFFFFFFFFFF AND DUP2 MSTORE PUSH1 0x20 ADD SWAP1 DUP2 MSTORE PUSH1 0x20 ADD PUSH1 0x0 KECCAK256 SLOAD EQ PUSH2 0x7FF JUMPI PUSH1 0x40 MLOAD PUSH32 0x8C379A000000000000000000000000000000000000000000000000000000000 DUP2 MSTORE PUSH1 0x4 ADD PUSH2 0x7F6 SWAP1 PUSH2 0x1322 JUMP JUMPDEST PUSH1 0x40 MLOAD DUP1 SWAP2 SUB SWAP1 REVERT JUMPDEST PUSH1 0x1 PUSH1 0x0 SWAP1 SLOAD SWAP1 PUSH2 0x100 EXP SWAP1 DIV PUSH20 0xFFFFFFFFFFFFFFFFFFFFFFFFFFFFFFFFFFFFFFFF AND PUSH20 0xFFFFFFFFFFFFFFFFFFFFFFFFFFFFFFFFFFFFFFFF AND PUSH4 0x23B872DD CALLER ADDRESS DUP5 PUSH1 0x40 MLOAD DUP5 PUSH4 0xFFFFFFFF AND PUSH1 0xE0 SHL DUP2 MSTORE PUSH1 0x4 ADD PUSH2 0x85E SWAP4 SWAP3 SWAP2 SWAP1 PUSH2 0x1342 JUMP JUMPDEST PUSH1 0x20 PUSH1 0x40 MLOAD DUP1 DUP4 SUB DUP2 PUSH1 0x0 DUP8 GAS CALL ISZERO DUP1 ISZERO PUSH2 0x87D JUMPI RETURNDATASIZE PUSH1 0x0 DUP1 RETURNDATACOPY RETURNDATASIZE PUSH1 0x0 REVERT JUMPDEST POP POP POP POP PUSH1 0x40 MLOAD RETURNDATASIZE PUSH1 0x1F NOT PUSH1 0x1F DUP3 ADD AND DUP3 ADD DUP1 PUSH1 0x40 MSTORE POP DUP2 ADD SWAP1 PUSH2 0x8A1 SWAP2 SWAP1 PUSH2 0x123D JUMP JUMPDEST POP DUP1 PUSH1 0x4 PUSH1 0x0 CALLER PUSH20 0xFFFFFFFFFFFFFFFFFFFFFFFFFFFFFFFFFFFFFFFF AND PUSH20 0xFFFFFFFFFFFFFFFFFFFFFFFFFFFFFFFFFFFFFFFF AND DUP2 MSTORE PUSH1 0x20 ADD SWAP1 DUP2 MSTORE PUSH1 0x20 ADD PUSH1 0x0 KECCAK256 DUP2 SWAP1 SSTORE POP TIMESTAMP PUSH1 0x5 PUSH1 0x0 CALLER PUSH20 0xFFFFFFFFFFFFFFFFFFFFFFFFFFFFFFFFFFFFFFFF AND PUSH20 0xFFFFFFFFFFFFFFFFFFFFFFFFFFFFFFFFFFFFFFFF AND DUP2 MSTORE PUSH1 0x20 ADD SWAP1 DUP2 MSTORE PUSH1 0x20 ADD PUSH1 0x0 KECCAK256 DUP2 SWAP1 SSTORE POP POP JUMP JUMPDEST PUSH2 0x935 PUSH2 0xCEF JUMP JUMPDEST PUSH1 0x1 PUSH1 0x0 SWAP1 SLOAD SWAP1 PUSH2 0x100 EXP SWAP1 DIV PUSH20 0xFFFFFFFFFFFFFFFFFFFFFFFFFFFFFFFFFFFFFFFF AND PUSH20 0xFFFFFFFFFFFFFFFFFFFFFFFFFFFFFFFFFFFFFFFF AND PUSH4 0xA9059CBB PUSH2 0x97B PUSH2 0x65F JUMP JUMPDEST DUP4 PUSH1 0x40 MLOAD DUP4 PUSH4 0xFFFFFFFF AND PUSH1 0xE0 SHL DUP2 MSTORE PUSH1 0x4 ADD PUSH2 0x999 SWAP3 SWAP2 SWAP1 PUSH2 0x11E8 JUMP JUMPDEST PUSH1 0x20 PUSH1 0x40 MLOAD DUP1 DUP4 SUB DUP2 PUSH1 0x0 DUP8 GAS CALL ISZERO DUP1 ISZERO PUSH2 0x9B8 JUMPI RETURNDATASIZE PUSH1 0x0 DUP1 RETURNDATACOPY RETURNDATASIZE PUSH1 0x0 REVERT JUMPDEST POP POP POP POP PUSH1 0x40 MLOAD RETURNDATASIZE PUSH1 0x1F NOT PUSH1 0x1F DUP3 ADD AND DUP3 ADD DUP1 PUSH1 0x40 MSTORE POP DUP2 ADD SWAP1 PUSH2 0x9DC SWAP2 SWAP1 PUSH2 0x123D JUMP JUMPDEST POP POP JUMP JUMPDEST PUSH1 0x0 PUSH1 0x3 SLOAD PUSH1 0x5 PUSH1 0x0 DUP5 PUSH20 0xFFFFFFFFFFFFFFFFFFFFFFFFFFFFFFFFFFFFFFFF AND PUSH20 0xFFFFFFFFFFFFFFFFFFFFFFFFFFFFFFFFFFFFFFFF AND DUP2 MSTORE PUSH1 0x20 ADD SWAP1 DUP2 MSTORE PUSH1 0x20 ADD PUSH1 0x0 KECCAK256 SLOAD PUSH2 0xA2F SWAP2 SWAP1 PUSH2 0x1148 JUMP JUMPDEST TIMESTAMP LT ISZERO PUSH2 0xAE5 JUMPI PUSH1 0x0 PUSH1 0x5 PUSH1 0x0 DUP5 PUSH20 0xFFFFFFFFFFFFFFFFFFFFFFFFFFFFFFFFFFFFFFFF AND PUSH20 0xFFFFFFFFFFFFFFFFFFFFFFFFFFFFFFFFFFFFFFFF AND DUP2 MSTORE PUSH1 0x20 ADD SWAP1 DUP2 MSTORE PUSH1 0x20 ADD PUSH1 0x0 KECCAK256 SLOAD TIMESTAMP PUSH2 0xA83 SWAP2 SWAP1 PUSH2 0x1379 JUMP JUMPDEST SWAP1 POP PUSH1 0x4 PUSH1 0x0 DUP5 PUSH20 0xFFFFFFFFFFFFFFFFFFFFFFFFFFFFFFFFFFFFFFFF AND PUSH20 0xFFFFFFFFFFFFFFFFFFFFFFFFFFFFFFFFFFFFFFFF AND DUP2 MSTORE PUSH1 0x20 ADD SWAP1 DUP2 MSTORE PUSH1 0x20 ADD PUSH1 0x0 KECCAK256 SLOAD PUSH1 0x2 SLOAD DUP3 PUSH2 0xAD3 SWAP2 SWAP1 PUSH2 0x13AD JUMP JUMPDEST PUSH2 0xADD SWAP2 SWAP1 PUSH2 0x13AD JUMP JUMPDEST SWAP2 POP POP PUSH2 0xB42 JUMP JUMPDEST PUSH1 0x4 PUSH1 0x0 DUP4 PUSH20 0xFFFFFFFFFFFFFFFFFFFFFFFFFFFFFFFFFFFFFFFF AND PUSH20 0xFFFFFFFFFFFFFFFFFFFFFFFFFFFFFFFFFFFFFFFF AND DUP2 MSTORE PUSH1 0x20 ADD SWAP1 DUP2 MSTORE PUSH1 0x20 ADD PUSH1 0x0 KECCAK256 SLOAD PUSH1 0x2 SLOAD PUSH1 0x3 SLOAD PUSH2 0xB35 SWAP2 SWAP1 PUSH2 0x13AD JUMP JUMPDEST PUSH2 0xB3F SWAP2 SWAP1 PUSH2 0x13AD JUMP JUMPDEST SWAP1 POP JUMPDEST SWAP2 SWAP1 POP JUMP JUMPDEST PUSH1 0x6 PUSH1 0x0 CALLER PUSH20 0xFFFFFFFFFFFFFFFFFFFFFFFFFFFFFFFFFFFFFFFF AND PUSH20 0xFFFFFFFFFFFFFFFFFFFFFFFFFFFFFFFFFFFFFFFF AND DUP2 MSTORE PUSH1 0x20 ADD SWAP1 DUP2 MSTORE PUSH1 0x20 ADD PUSH1 0x0 KECCAK256 PUSH1 0x0 SWAP1 SLOAD SWAP1 PUSH2 0x100 EXP SWAP1 DIV PUSH1 0xFF AND ISZERO PUSH2 0xBD4 JUMPI PUSH1 0x40 MLOAD PUSH32 0x8C379A000000000000000000000000000000000000000000000000000000000 DUP2 MSTORE PUSH1 0x4 ADD PUSH2 0xBCB SWAP1 PUSH2 0x143B JUMP JUMPDEST PUSH1 0x40 MLOAD DUP1 SWAP2 SUB SWAP1 REVERT JUMPDEST PUSH1 0x1 PUSH1 0x6 PUSH1 0x0 CALLER PUSH20 0xFFFFFFFFFFFFFFFFFFFFFFFFFFFFFFFFFFFFFFFF AND PUSH20 0xFFFFFFFFFFFFFFFFFFFFFFFFFFFFFFFFFFFFFFFF AND DUP2 MSTORE PUSH1 0x20 ADD SWAP1 DUP2 MSTORE PUSH1 0x20 ADD PUSH1 0x0 KECCAK256 PUSH1 0x0 PUSH2 0x100 EXP DUP2 SLOAD DUP2 PUSH1 0xFF MUL NOT AND SWAP1 DUP4 ISZERO ISZERO MUL OR SWAP1 SSTORE POP JUMP JUMPDEST PUSH2 0xC36 PUSH2 0xCEF JUMP JUMPDEST PUSH1 0x0 PUSH20 0xFFFFFFFFFFFFFFFFFFFFFFFFFFFFFFFFFFFFFFFF AND DUP2 PUSH20 0xFFFFFFFFFFFFFFFFFFFFFFFFFFFFFFFFFFFFFFFF AND SUB PUSH2 0xCA5 JUMPI PUSH1 0x40 MLOAD PUSH32 0x8C379A000000000000000000000000000000000000000000000000000000000 DUP2 MSTORE PUSH1 0x4 ADD PUSH2 0xC9C SWAP1 PUSH2 0x14CD JUMP JUMPDEST PUSH1 0x40 MLOAD DUP1 SWAP2 SUB SWAP1 REVERT JUMPDEST PUSH2 0xCAE DUP2 PUSH2 0xD6D JUMP JUMPDEST POP JUMP JUMPDEST PUSH1 0x5 PUSH1 0x20 MSTORE DUP1 PUSH1 0x0 MSTORE PUSH1 0x40 PUSH1 0x0 KECCAK256 PUSH1 0x0 SWAP2 POP SWAP1 POP SLOAD DUP2 JUMP JUMPDEST PUSH1 0x1 PUSH1 0x0 SWAP1 SLOAD SWAP1 PUSH2 0x100 EXP SWAP1 DIV PUSH20 0xFFFFFFFFFFFFFFFFFFFFFFFFFFFFFFFFFFFFFFFF AND DUP2 JUMP JUMPDEST PUSH2 0xCF7 PUSH2 0xE31 JUMP JUMPDEST PUSH20 0xFFFFFFFFFFFFFFFFFFFFFFFFFFFFFFFFFFFFFFFF AND PUSH2 0xD15 PUSH2 0x65F JUMP JUMPDEST PUSH20 0xFFFFFFFFFFFFFFFFFFFFFFFFFFFFFFFFFFFFFFFF AND EQ PUSH2 0xD6B JUMPI PUSH1 0x40 MLOAD PUSH32 0x8C379A000000000000000000000000000000000000000000000000000000000 DUP2 MSTORE PUSH1 0x4 ADD PUSH2 0xD62 SWAP1 PUSH2 0x1539 JUMP JUMPDEST PUSH1 0x40 MLOAD DUP1 SWAP2 SUB SWAP1 REVERT JUMPDEST JUMP JUMPDEST PUSH1 0x0 DUP1 PUSH1 0x0 SWAP1 SLOAD SWAP1 PUSH2 0x100 EXP SWAP1 DIV PUSH20 0xFFFFFFFFFFFFFFFFFFFFFFFFFFFFFFFFFFFFFFFF AND SWAP1 POP DUP2 PUSH1 0x0 DUP1 PUSH2 0x100 EXP DUP2 SLOAD DUP2 PUSH20 0xFFFFFFFFFFFFFFFFFFFFFFFFFFFFFFFFFFFFFFFF MUL NOT AND SWAP1 DUP4 PUSH20 0xFFFFFFFFFFFFFFFFFFFFFFFFFFFFFFFFFFFFFFFF AND MUL OR SWAP1 SSTORE POP DUP2 PUSH20 0xFFFFFFFFFFFFFFFFFFFFFFFFFFFFFFFFFFFFFFFF AND DUP2 PUSH20 0xFFFFFFFFFFFFFFFFFFFFFFFFFFFFFFFFFFFFFFFF AND PUSH32 0x8BE0079C531659141344CD1FD0A4F28419497F9722A3DAAFE3B4186F6B6457E0 PUSH1 0x40 MLOAD PUSH1 0x40 MLOAD DUP1 SWAP2 SUB SWAP1 LOG3 POP POP JUMP JUMPDEST PUSH1 0x0 CALLER SWAP1 POP SWAP1 JUMP JUMPDEST PUSH1 0x0 DUP1 REVERT JUMPDEST PUSH1 0x0 PUSH20 0xFFFFFFFFFFFFFFFFFFFFFFFFFFFFFFFFFFFFFFFF DUP3 AND SWAP1 POP SWAP2 SWAP1 POP JUMP JUMPDEST PUSH1 0x0 PUSH2 0xE69 DUP3 PUSH2 0xE3E JUMP JUMPDEST SWAP1 POP SWAP2 SWAP1 POP JUMP JUMPDEST PUSH2 0xE79 DUP2 PUSH2 0xE5E JUMP JUMPDEST DUP2 EQ PUSH2 0xE84 JUMPI PUSH1 0x0 DUP1 REVERT JUMPDEST POP JUMP JUMPDEST PUSH1 0x0 DUP2 CALLDATALOAD SWAP1 POP PUSH2 0xE96 DUP2 PUSH2 0xE70 JUMP JUMPDEST SWAP3 SWAP2 POP POP JUMP JUMPDEST PUSH1 0x0 PUSH1 0x20 DUP3 DUP5 SUB SLT ISZERO PUSH2 0xEB2 JUMPI PUSH2 0xEB1 PUSH2 0xE39 JUMP JUMPDEST JUMPDEST PUSH1 0x0 PUSH2 0xEC0 DUP5 DUP3 DUP6 ADD PUSH2 0xE87 JUMP JUMPDEST SWAP2 POP POP SWAP3 SWAP2 POP POP JUMP JUMPDEST PUSH1 0x0 DUP2 SWAP1 POP SWAP2 SWAP1 POP JUMP JUMPDEST PUSH2 0xEDC DUP2 PUSH2 0xEC9 JUMP JUMPDEST DUP3 MSTORE POP POP JUMP JUMPDEST PUSH1 0x0 PUSH1 0x20 DUP3 ADD SWAP1 POP PUSH2 0xEF7 PUSH1 0x0 DUP4 ADD DUP5 PUSH2 0xED3 JUMP JUMPDEST SWAP3 SWAP2 POP POP JUMP JUMPDEST PUSH2 0xF06 DUP2 PUSH2 0xEC9 JUMP JUMPDEST DUP2 EQ PUSH2 0xF11 JUMPI PUSH1 0x0 DUP1 REVERT JUMPDEST POP JUMP JUMPDEST PUSH1 0x0 DUP2 CALLDATALOAD SWAP1 POP PUSH2 0xF23 DUP2 PUSH2 0xEFD JUMP JUMPDEST SWAP3 SWAP2 POP POP JUMP JUMPDEST PUSH1 0x0 PUSH1 0x20 DUP3 DUP5 SUB SLT ISZERO PUSH2 0xF3F JUMPI PUSH2 0xF3E PUSH2 0xE39 JUMP JUMPDEST JUMPDEST PUSH1 0x0 PUSH2 0xF4D DUP5 DUP3 DUP6 ADD PUSH2 0xF14 JUMP JUMPDEST SWAP2 POP POP SWAP3 SWAP2 POP POP JUMP JUMPDEST PUSH2 0xF5F DUP2 PUSH2 0xE5E JUMP JUMPDEST DUP3 MSTORE POP POP JUMP JUMPDEST PUSH1 0x0 PUSH1 0x20 DUP3 ADD SWAP1 POP PUSH2 0xF7A PUSH1 0x0 DUP4 ADD DUP5 PUSH2 0xF56 JUMP JUMPDEST SWAP3 SWAP2 POP POP JUMP JUMPDEST PUSH1 0x0 DUP2 ISZERO ISZERO SWAP1 POP SWAP2 SWAP1 POP JUMP JUMPDEST PUSH2 0xF95 DUP2 PUSH2 0xF80 JUMP JUMPDEST DUP3 MSTORE POP POP JUMP JUMPDEST PUSH1 0x0 PUSH1 0x20 DUP3 ADD SWAP1 POP PUSH2 0xFB0 PUSH1 0x0 DUP4 ADD DUP5 PUSH2 0xF8C JUMP JUMPDEST SWAP3 SWAP2 POP POP JUMP JUMPDEST PUSH1 0x0 DUP2 SWAP1 POP SWAP2 SWAP1 POP JUMP JUMPDEST PUSH1 0x0 PUSH2 0xFDB PUSH2 0xFD6 PUSH2 0xFD1 DUP5 PUSH2 0xE3E JUMP JUMPDEST PUSH2 0xFB6 JUMP JUMPDEST PUSH2 0xE3E JUMP JUMPDEST SWAP1 POP SWAP2 SWAP1 POP JUMP JUMPDEST PUSH1 0x0 PUSH2 0xFED DUP3 PUSH2 0xFC0 JUMP JUMPDEST SWAP1 POP SWAP2 SWAP1 POP JUMP JUMPDEST PUSH1 0x0 PUSH2 0xFFF DUP3 PUSH2 0xFE2 JUMP JUMPDEST SWAP1 POP SWAP2 SWAP1 POP JUMP JUMPDEST PUSH2 0x100F DUP2 PUSH2 0xFF4 JUMP JUMPDEST DUP3 MSTORE POP POP JUMP JUMPDEST PUSH1 0x0 PUSH1 0x20 DUP3 ADD SWAP1 POP PUSH2 0x102A PUSH1 0x0 DUP4 ADD DUP5 PUSH2 0x1006 JUMP JUMPDEST SWAP3 SWAP2 POP POP JUMP JUMPDEST PUSH1 0x0 DUP3 DUP3 MSTORE PUSH1 0x20 DUP3 ADD SWAP1 POP SWAP3 SWAP2 POP POP JUMP JUMPDEST PUSH32 0x4E6F7420656E726F6C6C65640000000000000000000000000000000000000000 PUSH1 0x0 DUP3 ADD MSTORE POP JUMP JUMPDEST PUSH1 0x0 PUSH2 0x1077 PUSH1 0xC DUP4 PUSH2 0x1030 JUMP JUMPDEST SWAP2 POP PUSH2 0x1082 DUP3 PUSH2 0x1041 JUMP JUMPDEST PUSH1 0x20 DUP3 ADD SWAP1 POP SWAP2 SWAP1 POP JUMP JUMPDEST PUSH1 0x0 PUSH1 0x20 DUP3 ADD SWAP1 POP DUP2 DUP2 SUB PUSH1 0x0 DUP4 ADD MSTORE PUSH2 0x10A6 DUP2 PUSH2 0x106A JUMP JUMPDEST SWAP1 POP SWAP2 SWAP1 POP JUMP JUMPDEST PUSH32 0x4E6F207374616B656420616D6F756E7400000000000000000000000000000000 PUSH1 0x0 DUP3 ADD MSTORE POP JUMP JUMPDEST PUSH1 0x0 PUSH2 0x10E3 PUSH1 0x10 DUP4 PUSH2 0x1030 JUMP JUMPDEST SWAP2 POP PUSH2 0x10EE DUP3 PUSH2 0x10AD JUMP JUMPDEST PUSH1 0x20 DUP3 ADD SWAP1 POP SWAP2 SWAP1 POP JUMP JUMPDEST PUSH1 0x0 PUSH1 0x20 DUP3 ADD SWAP1 POP DUP2 DUP2 SUB PUSH1 0x0 DUP4 ADD MSTORE PUSH2 0x1112 DUP2 PUSH2 0x10D6 JUMP JUMPDEST SWAP1 POP SWAP2 SWAP1 POP JUMP JUMPDEST PUSH32 0x4E487B7100000000000000000000000000000000000000000000000000000000 PUSH1 0x0 MSTORE PUSH1 0x11 PUSH1 0x4 MSTORE PUSH1 0x24 PUSH1 0x0 REVERT JUMPDEST PUSH1 0x0 PUSH2 0x1153 DUP3 PUSH2 0xEC9 JUMP JUMPDEST SWAP2 POP PUSH2 0x115E DUP4 PUSH2 0xEC9 JUMP JUMPDEST SWAP3 POP DUP3 DUP3 ADD SWAP1 POP DUP1 DUP3 GT ISZERO PUSH2 0x1176 JUMPI PUSH2 0x1175 PUSH2 0x1119 JUMP JUMPDEST JUMPDEST SWAP3 SWAP2 POP POP JUMP JUMPDEST PUSH32 0x5374616B696E67206475726174696F6E206E6F74207061737365640000000000 PUSH1 0x0 DUP3 ADD MSTORE POP JUMP JUMPDEST PUSH1 0x0 PUSH2 0x11B2 PUSH1 0x1B DUP4 PUSH2 0x1030 JUMP JUMPDEST SWAP2 POP PUSH2 0x11BD DUP3 PUSH2 0x117C JUMP JUMPDEST PUSH1 0x20 DUP3 ADD SWAP1 POP SWAP2 SWAP1 POP JUMP JUMPDEST PUSH1 0x0 PUSH1 0x20 DUP3 ADD SWAP1 POP DUP2 DUP2 SUB PUSH1 0x0 DUP4 ADD MSTORE PUSH2 0x11E1 DUP2 PUSH2 0x11A5 JUMP JUMPDEST SWAP1 POP SWAP2 SWAP1 POP JUMP JUMPDEST PUSH1 0x0 PUSH1 0x40 DUP3 ADD SWAP1 POP PUSH2 0x11FD PUSH1 0x0 DUP4 ADD DUP6 PUSH2 0xF56 JUMP JUMPDEST PUSH2 0x120A PUSH1 0x20 DUP4 ADD DUP5 PUSH2 0xED3 JUMP JUMPDEST SWAP4 SWAP3 POP POP POP JUMP JUMPDEST PUSH2 0x121A DUP2 PUSH2 0xF80 JUMP JUMPDEST DUP2 EQ PUSH2 0x1225 JUMPI PUSH1 0x0 DUP1 REVERT JUMPDEST POP JUMP JUMPDEST PUSH1 0x0 DUP2 MLOAD SWAP1 POP PUSH2 0x1237 DUP2 PUSH2 0x1211 JUMP JUMPDEST SWAP3 SWAP2 POP POP JUMP JUMPDEST PUSH1 0x0 PUSH1 0x20 DUP3 DUP5 SUB SLT ISZERO PUSH2 0x1253 JUMPI PUSH2 0x1252 PUSH2 0xE39 JUMP JUMPDEST JUMPDEST PUSH1 0x0 PUSH2 0x1261 DUP5 DUP3 DUP6 ADD PUSH2 0x1228 JUMP JUMPDEST SWAP2 POP POP SWAP3 SWAP2 POP POP JUMP JUMPDEST PUSH32 0x416D6F756E74206D7573742062652067726561746572207468616E2030000000 PUSH1 0x0 DUP3 ADD MSTORE POP JUMP JUMPDEST PUSH1 0x0 PUSH2 0x12A0 PUSH1 0x1D DUP4 PUSH2 0x1030 JUMP JUMPDEST SWAP2 POP PUSH2 0x12AB DUP3 PUSH2 0x126A JUMP JUMPDEST PUSH1 0x20 DUP3 ADD SWAP1 POP SWAP2 SWAP1 POP JUMP JUMPDEST PUSH1 0x0 PUSH1 0x20 DUP3 ADD SWAP1 POP DUP2 DUP2 SUB PUSH1 0x0 DUP4 ADD MSTORE PUSH2 0x12CF DUP2 PUSH2 0x1293 JUMP JUMPDEST SWAP1 POP SWAP2 SWAP1 POP JUMP JUMPDEST PUSH32 0x416C7265616479207374616B6564000000000000000000000000000000000000 PUSH1 0x0 DUP3 ADD MSTORE POP JUMP JUMPDEST PUSH1 0x0 PUSH2 0x130C PUSH1 0xE DUP4 PUSH2 0x1030 JUMP JUMPDEST SWAP2 POP PUSH2 0x1317 DUP3 PUSH2 0x12D6 JUMP JUMPDEST PUSH1 0x20 DUP3 ADD SWAP1 POP SWAP2 SWAP1 POP JUMP JUMPDEST PUSH1 0x0 PUSH1 0x20 DUP3 ADD SWAP1 POP DUP2 DUP2 SUB PUSH1 0x0 DUP4 ADD MSTORE PUSH2 0x133B DUP2 PUSH2 0x12FF JUMP JUMPDEST SWAP1 POP SWAP2 SWAP1 POP JUMP JUMPDEST PUSH1 0x0 PUSH1 0x60 DUP3 ADD SWAP1 POP PUSH2 0x1357 PUSH1 0x0 DUP4 ADD DUP7 PUSH2 0xF56 JUMP JUMPDEST PUSH2 0x1364 PUSH1 0x20 DUP4 ADD DUP6 PUSH2 0xF56 JUMP JUMPDEST PUSH2 0x1371 PUSH1 0x40 DUP4 ADD DUP5 PUSH2 0xED3 JUMP JUMPDEST SWAP5 SWAP4 POP POP POP POP JUMP JUMPDEST PUSH1 0x0 PUSH2 0x1384 DUP3 PUSH2 0xEC9 JUMP JUMPDEST SWAP2 POP PUSH2 0x138F DUP4 PUSH2 0xEC9 JUMP JUMPDEST SWAP3 POP DUP3 DUP3 SUB SWAP1 POP DUP2 DUP2 GT ISZERO PUSH2 0x13A7 JUMPI PUSH2 0x13A6 PUSH2 0x1119 JUMP JUMPDEST JUMPDEST SWAP3 SWAP2 POP POP JUMP JUMPDEST PUSH1 0x0 PUSH2 0x13B8 DUP3 PUSH2 0xEC9 JUMP JUMPDEST SWAP2 POP PUSH2 0x13C3 DUP4 PUSH2 0xEC9 JUMP JUMPDEST SWAP3 POP DUP3 DUP3 MUL PUSH2 0x13D1 DUP2 PUSH2 0xEC9 JUMP JUMPDEST SWAP2 POP DUP3 DUP3 DIV DUP5 EQ DUP4 ISZERO OR PUSH2 0x13E8 JUMPI PUSH2 0x13E7 PUSH2 0x1119 JUMP JUMPDEST JUMPDEST POP SWAP3 SWAP2 POP POP JUMP JUMPDEST PUSH32 0x416C726561647920656E726F6C6C656400000000000000000000000000000000 PUSH1 0x0 DUP3 ADD MSTORE POP JUMP JUMPDEST PUSH1 0x0 PUSH2 0x1425 PUSH1 0x10 DUP4 PUSH2 0x1030 JUMP JUMPDEST SWAP2 POP PUSH2 0x1430 DUP3 PUSH2 0x13EF JUMP JUMPDEST PUSH1 0x20 DUP3 ADD SWAP1 POP SWAP2 SWAP1 POP JUMP JUMPDEST PUSH1 0x0 PUSH1 0x20 DUP3 ADD SWAP1 POP DUP2 DUP2 SUB PUSH1 0x0 DUP4 ADD MSTORE PUSH2 0x1454 DUP2 PUSH2 0x1418 JUMP JUMPDEST SWAP1 POP SWAP2 SWAP1 POP JUMP JUMPDEST PUSH32 0x4F776E61626C653A206E6577206F776E657220697320746865207A65726F2061 PUSH1 0x0 DUP3 ADD MSTORE PUSH32 0x6464726573730000000000000000000000000000000000000000000000000000 PUSH1 0x20 DUP3 ADD MSTORE POP JUMP JUMPDEST PUSH1 0x0 PUSH2 0x14B7 PUSH1 0x26 DUP4 PUSH2 0x1030 JUMP JUMPDEST SWAP2 POP PUSH2 0x14C2 DUP3 PUSH2 0x145B JUMP JUMPDEST PUSH1 0x40 DUP3 ADD SWAP1 POP SWAP2 SWAP1 POP JUMP JUMPDEST PUSH1 0x0 PUSH1 0x20 DUP3 ADD SWAP1 POP DUP2 DUP2 SUB PUSH1 0x0 DUP4 ADD MSTORE PUSH2 0x14E6 DUP2 PUSH2 0x14AA JUMP JUMPDEST SWAP1 POP SWAP2 SWAP1 POP JUMP JUMPDEST PUSH32 0x4F776E61626C653A2063616C6C6572206973206E6F7420746865206F776E6572 PUSH1 0x0 DUP3 ADD MSTORE POP JUMP JUMPDEST PUSH1 0x0 PUSH2 0x1523 PUSH1 0x20 DUP4 PUSH2 0x1030 JUMP JUMPDEST SWAP2 POP PUSH2 0x152E DUP3 PUSH2 0x14ED JUMP JUMPDEST PUSH1 0x20 DUP3 ADD SWAP1 POP SWAP2 SWAP1 POP JUMP JUMPDEST PUSH1 0x0 PUSH1 0x20 DUP3 ADD SWAP1 POP DUP2 DUP2 SUB PUSH1 0x0 DUP4 ADD MSTORE PUSH2 0x1552 DUP2 PUSH2 0x1516 JUMP JUMPDEST SWAP1 POP SWAP2 SWAP1 POP JUMP INVALID LOG2 PUSH5 0x6970667358 0x22 SLT KECCAK256 0xD4 PUSH4 0x46498B7B REVERT 0x2F PUSH29 0x513FD6693AA70F39DAE7F0DE8A478067C9C7FFB760FACC64736F6C6343 STOP ADDMOD SLT STOP CALLER "
				},
				"gasEstimates": {
					"creation": {
						"codeDepositCost": "1103800",
						"executionCost": "infinite",
						"totalCost": "infinite"
					},
					"external": {
						"calculateReward(address)": "infinite",
						"enroll()": "26767",
						"isEnrolled(address)": "2868",
						"owner()": "2589",
						"renounceOwnership()": "30421",
						"rewardPerSecond()": "2518",
						"rewardToken()": "infinite",
						"stake(uint256)": "infinite",
						"stakes(address)": "2838",
						"stakingDuration()": "2474",
						"startTimes(address)": "2880",
						"transferOwnership(address)": "30788",
						"unstake()": "infinite",
						"updateRewardPerSecond(uint256)": "24852",
						"updateStakingDuration(uint256)": "24874",
						"withdrawRewardTokens(uint256)": "infinite"
					}
				},
				"methodIdentifiers": {
					"calculateReward(address)": "d82e3962",
					"enroll()": "e65f2a7e",
					"isEnrolled(address)": "94518fd8",
					"owner()": "8da5cb5b",
					"renounceOwnership()": "715018a6",
					"rewardPerSecond()": "8f10369a",
					"rewardToken()": "f7c618c1",
					"stake(uint256)": "a694fc3a",
					"stakes(address)": "16934fc4",
					"stakingDuration()": "8005a7de",
					"startTimes(address)": "f53fd4ae",
					"transferOwnership(address)": "f2fde38b",
					"unstake()": "2def6620",
					"updateRewardPerSecond(uint256)": "4004c8e7",
					"updateStakingDuration(uint256)": "5b1d7086",
					"withdrawRewardTokens(uint256)": "cb43b2dd"
				}
			},
			"storageLayout": {
				"storage": [
					{
						"astId": 7,
						"contract": "IBWHACK/stakeContract.sol:NFTStaking",
						"label": "_owner",
						"offset": 0,
						"slot": "0",
						"type": "t_address"
					},
					{
						"astId": 221,
						"contract": "IBWHACK/stakeContract.sol:NFTStaking",
						"label": "rewardToken",
						"offset": 0,
						"slot": "1",
						"type": "t_contract(IERC20)190"
					},
					{
						"astId": 223,
						"contract": "IBWHACK/stakeContract.sol:NFTStaking",
						"label": "rewardPerSecond",
						"offset": 0,
						"slot": "2",
						"type": "t_uint256"
					},
					{
						"astId": 225,
						"contract": "IBWHACK/stakeContract.sol:NFTStaking",
						"label": "stakingDuration",
						"offset": 0,
						"slot": "3",
						"type": "t_uint256"
					},
					{
						"astId": 229,
						"contract": "IBWHACK/stakeContract.sol:NFTStaking",
						"label": "stakes",
						"offset": 0,
						"slot": "4",
						"type": "t_mapping(t_address,t_uint256)"
					},
					{
						"astId": 233,
						"contract": "IBWHACK/stakeContract.sol:NFTStaking",
						"label": "startTimes",
						"offset": 0,
						"slot": "5",
						"type": "t_mapping(t_address,t_uint256)"
					},
					{
						"astId": 237,
						"contract": "IBWHACK/stakeContract.sol:NFTStaking",
						"label": "isEnrolled",
						"offset": 0,
						"slot": "6",
						"type": "t_mapping(t_address,t_bool)"
					}
				],
				"types": {
					"t_address": {
						"encoding": "inplace",
						"label": "address",
						"numberOfBytes": "20"
					},
					"t_bool": {
						"encoding": "inplace",
						"label": "bool",
						"numberOfBytes": "1"
					},
					"t_contract(IERC20)190": {
						"encoding": "inplace",
						"label": "contract IERC20",
						"numberOfBytes": "20"
					},
					"t_mapping(t_address,t_bool)": {
						"encoding": "mapping",
						"key": "t_address",
						"label": "mapping(address => bool)",
						"numberOfBytes": "32",
						"value": "t_bool"
					},
					"t_mapping(t_address,t_uint256)": {
						"encoding": "mapping",
						"key": "t_address",
						"label": "mapping(address => uint256)",
						"numberOfBytes": "32",
						"value": "t_uint256"
					},
					"t_uint256": {
						"encoding": "inplace",
						"label": "uint256",
						"numberOfBytes": "32"
					}
				}
			},
			"userdoc": {
				"kind": "user",
				"methods": {},
				"version": 1
			}
		}
	}
}